:020000040800F2
:1000000060AE0020A9010008B1010008B30100089A
:10001000B5010008B7010008B901000800000000A0
:10002000000000000000000000000000BB0100080C
:10003000BD01000800000000BF010008C101000868
:10004000C3010008C3010008C3010008C301000880
:10005000C3010008C3010008C3010008C301000870
:10006000C3010008C3010008C3010008C301000860
:10007000C3010008C3010008C3010008C301000850
:10008000C3010008C3010008C3010008000000000C
:10009000000000000000000000000000C301000894
:1000A000C3010008C3010008C3010008C301000820
:1000B000F9AE0108BDAF0108C3010008C301000883
:1000C000C3010008C3010008C3010008C301000800
:1000D000C301000861B20108A1B2010800000000DC
:1000E000C3010008C3010008C301000800000000AC
:1000F000000000000000000000000000C301000834
:1001000000000000C3010008C3010008C30100088B
:1001100000000000000000000000000000000000DF
:10012000C3010008C3010008C3010008C30100089F
:10013000C3010008000000000000000000000000F3
:10014000000000000000000000000000C3010008E3
:10015000C3010008C3010008F53E0008D5B201083C
:10016000C3010008C30100080000000000000000F7
:10017000000000000000000000000000000000007F
:1001800000000000C30100080000000000000000A3
:10019000C3010008DFF80CD000F0E8FF004800477A
:1001A000DDD2010860AE00200648804706480047BF
:1001B000FEE7FEE7FEE7FEE7FEE7FEE7FEE7FEE717
:1001C000FEE7FEE791AE0108950100087CB5082323
:1001D0006A4673217A201CF06BFF05460DB1284654
:1001E0007CBD002405E0201D1DF80000FE490855D7
:1001F000641C042CF7DB08236A4674217A201CF067
:1002000057FF05460DB12846EAE7042404E01DF82F
:100210000400F5490855641C082CF8DB08236A46DD
:1002200075217A201CF044FF05460DB12846D7E71A
:10023000002405E0201D1DF80000EC490855641C51
:10024000042CF7DB08236A4676217A201CF030FF65
:1002500005460DB12846C3E7042404E01DF8040058
:10026000E2490855641C082CF8DB0020B8E71CB5EF
:10027000014600200AE0021D8A5CD243D2B20DF88A
:1002800000200B5C021D0DF80230401C0428F2DB3C
:10029000002003E01DF800200A54401C0828F9DB68
:1002A0001CBD3CB5024600200CE0135C0C5C6340B6
:1002B000041D0DF80430031DD35C0C5D63400DF884
:1002C0000030401C0428F0DB002003E01DF8003063
:1002D0001354401C0828F9DB3CBD0CB5014607202F
:1002E00004E0421E8A5C0DF80020401E0028F8DC65
:1002F000CA798DF80020002003E01DF800200A5480
:10030000401C0828F9DB0CBD0CB50146002004E0B8
:10031000421C8A5C0DF80020401C0728F8DB0A7894
:100320008DF80720002003E01DF800200A54401C2F
:100330000828F9DB0CBD2DE9FF4F83B082468846C3
:10034000DDE910B9002404E01AF8040008F80400FC
:10035000641C082CF8DB0025ADE0B9F1000F0BD1CF
:10036000002406E0A24800EBC500005D0DF8040083
:10037000641C082CF6DB10E000240CE09D4800EB28
:10038000C500005D9849095D48409849095D4840AD
:100390000DF80400641C082CF0DB002407E01DF8B5
:1003A00004000599095D48400DF80400641C022C06
:1003B000F5DB002409E0A01C1DF800008E49095D52
:1003C0004840A11C0DF80100641C022CF3DB00273F
:1003D0001FE09DF80000029000240CE01DF80400CE
:1003E000F82101EAC001601C1DF8000041EA50102C
:1003F0000DF80400641C072CF0DB9DF80700F821C1
:1004000001EAC001029841EA50108DF80700781CFB
:10041000C7B2ABF10100B842DBDC002745E09DF834
:100420000700029007240CE0601E1DF80000E02188
:1004300001EA40101DF8041040EAD1000DF8040054
:10044000641E002CF0DCE021029801EA40109DF8C7
:10045000001040EAD1008DF800009DF80000042152
:1004600001EAE0009DF8001040EA91161EB94046EE
:10047000FFF7FDFE17E0012E04D169464046FFF765
:1004800010FF10E0B9F1000F05D0032E03D1404654
:10049000FFF723FF07E0B9F1000F04D0042E02D1CB
:1004A0004046FFF731FF781CC7B2ABF10100B842FC
:1004B000B5DC681CC5B206988542FFF64EAF07B0A2
:1004C000BDE8F08F30B587B010234C4A30217A2038
:1004D0001CF0EEFD054615B1284607B030BD0024DE
:1004E0000DE0464810F8140003A90855012000EB60
:1004F00044004249095C03AA601C1154A41C082C46
:10050000EFDB3E48C07A8DF808003C4880788DF8D3
:10051000090000203849087001204870002020217F
:10052000022302AACDE9001005A903A8FFF703FFE3
:10053000002405E005A8005D314901F81400641CA1
:10054000082CF7DB2E48007880F0A8002C490870B2
:10055000002048703020C870A4204871AF20C871B6
:1005600044204872CB20C872832048730C20C87383
:1005700010230A4630217A201CF0C2FD05460DB139
:100580002846AAE72A201CF073FD0020A5E77CB5C9
:100590001648007880F014008DF800001348407869
:1005A00080F0D8008DF801001048807880F0360087
:1005B0008DF802000D48C07880F047008DF80300E8
:1005C0000A48007980F09A008DF8040007484079C5
:1005D00080F06A008DF805000448807980F02200E0
:1005E0008DF8060001480DE0EF030020F70300201E
:1005F000C5030020D5030020ED0300205029002072
:1006000040290020C07980F008008DF80700984844
:100610004078801C96494870012405E01CF02EFDAE
:10062000944901F81400A41C082CF7DB002405E011
:100630001DF804008F4901F81400641C082CF7DB36
:1006400010238C4A40217A201CF05AFD05460DB13A
:1006500028467CBD0020FCE72DE9F04F87B0064618
:1006600089464FF0E90B8448007800283FD10024E8
:1006700003E000207F490855641C102CF9DB082397
:100680007C4A80217A201CF03BFD01201CF0F0FC0C
:100690000123784A20217A201CF032FD01201CF031
:1006A000E7FC83207349087001230A4622217A203F
:1006B0001CF026FD01201CF0DBFCFFF703FF0546C4
:1006C0001DB1284607B0BDE8F08F01201CF0D0FC1A
:1006D000FFF77CFD05460DB12846F3E7FFF757FF0E
:1006E00005460DB12846EDE7012063490870002753
:1006F000B9E017B9CDF80CB001E0872003900024D1
:100700000BE0305D5B4901F814001CF0B7FC0121DF
:1007100001EB4401574A5054641C082CF1DB8FBB99
:100720001023564A7A2003991CF0C2FC05460DB1ED
:100730002846C7E700240DE0504810F8140005A92A
:100740000855012000EB44004C49095C05AA601CD7
:100750001154A41C082CEFDB4848C07A8DF8100017
:10076000464880788DF811009DF81000C04341493B
:1007700008709DF8110088730846007830700846AC
:10078000807BF07110233B4A7A2003991CF0B8FC5F
:1007900005460DB1284695E705201CF069FC10239D
:1007A000364A7A2003991CF083FC05460DB1284691
:1007B00088E700240DE0314810F8140005A9085519
:1007C000012000EB44002D49095C05AA601C11546E
:1007D000A41C082CEFDB2948C07A8DF810002748AC
:1007E00080788DF8110022484078FF2807D12048F2
:1007F0000078401C1E4908700020487004E01C4826
:100800004078401C1A4948704FF0010A002417E054
:1008100002202021032304AACDE90010494605A89F
:10082000FFF789FD4FF0000806E019F8080005A958
:1008300001F8080008F10108B8F1080FF5DB641CA5
:100840005445E5DB002407E0305D19F804108842C8
:1008500001D0322502E0641C082CF5DB00BF0DB985
:1008600000202FE77F1C022FFFF643AF284629E721
:10087000ED03002040290020C4030020502900205F
:100880002DE9F05F0546002092469B4688460646C5
:10089000814640241BE0284641464746224600F058
:1008A000D6FA53465A46C01A914110D311461846FB
:1008B000224600F0BDFA2D1A67EB01084F4622468A
:1008C0000120002100F0B4FA17EB00094E41201E70
:1008D000A4F10104DFDC484631462A464346BDE820
:1008E000F09F00000649074A0868504343F2390266
:1008F00010440860400870470149086070470000D4
:10090000000400206D4EC64140EA01039B0703D05E
:1009100009E008C9121F08C0042AFAD203E011F83E
:10092000013B00F8013B521EF9D27047D2B201E000
:1009300000F8012B491EFBD270470022F6E710B5E4
:1009400013460A4604461946FFF7F0FF204610BD3D
:1009500010B5002200E0521C835C8C5CA34201D1E4
:10096000002BF8D1D8B2E1B2401A10BD70B50646DE
:100970001BF0FCF9046805460A220021304600F00D
:10098000D7FA2C6070BD2DE9FE4F804681EA030046
:10099000C00F0C46009021F0004123F00045B8EB59
:1009A0000200A94105D24046214690461C460B460E
:1009B000024623F00040104347D0270DC7F30A003A
:1009C000C3F30A510290401A019040286BDAC3F336
:1009D000130040F4801B0098924620B10023D2EB14
:1009E000030A63EB0B0B01985946C0F140025046D5
:1009F00000F01EFA06460D4650465946019A00F090
:100A000036FA10EB08006141002487EA115284EAAB
:100A1000E7731A4340D0009A62B3019A012A4FEA61
:100A2000075215DC001B61EB02014FF0004202EAA5
:100A30000752CDE90042001C41F5801132462B4699
:100A400000F0F4FA03B0BDE8F08F40462146F9E724
:100A5000001B61EB0201001C41F5801300185B4193
:100A60002018A2F5001747EB030140EAD570B6192C
:100A70006D4111E06D084FEA360645EAC0754FEA50
:100A80000752001B61EB0201001C41F5801149086F
:100A90004FEA30000019514132462B4603B0BDE801
:100AA000F04F00F0B4BA0098012240000023D0EBD0
:100AB000020263EBE073009821464FEAE074B8EB62
:100AC000000061EB0401E9E783F000435BE781F09C
:100AD000004158E72DE9FE4F81EA030404F0004489
:100AE00021F0004100944FF0000B23F0004350EA46
:100AF00001045ED052EA03045BD0C3F30A54C1F38D
:100B00000A552C44A4F2F3340194A0FB0254C1F31F
:100B1000130141F48011C3F3130343F4801301FB69
:100B2000024400FB034E840A970A44EA815447EAD0
:100B30008357A4FB076802958D0A05FB07854FEADA
:100B4000932C04FB0C542705029D4FEA065847EAF4
:100B50001637B5EB08056EEB070C870E920E47EAC9
:100B6000811742EA8312A7FB0201B6EB0B0164EB8B
:100B700000042B0D43EA0C335E1844EB1C50DA469C
:100B80005146E7FB0201C5F313044FEA0B3343EA76
:100B900014534FEA0432019C43EA0603A4F10C0407
:100BA0000294009CCDE900B400F040FA03B0BDE827
:100BB000F08F00200146F9E72DE9F04D81EA0304AA
:100BC00004F0004B21F0004514464FF0000A23F0DA
:100BD000004150EA050220D054EA01021DD0C5F3BD
:100BE0000A570246C5F31303C1F31300C1F30A56B3
:100BF00040F4801543F48013A7EB0608101BD6467B
:100C000008F2FD3873EB050002D308F1010801E09A
:100C100092185B41B8F1000F03DA00200146BDE8ED
:100C2000F08D00204FF48011064684460EE0171B1D
:100C300073EB050705D3121B63EB050306434CEA70
:100C4000010C49084FEA300092185B4150EA010755
:100C5000EDD152EA030012D082EA040083EA0501D2
:100C6000084305D0101BAB4106D20122002306E049
:100C700000224FF0004302E06FF0010253101AEB24
:100C800006004CEB085110EB0A0041EB0B01BDE8EC
:100C9000F04D00F0BCB90EB5C10F80EAE070084419
:100CA000CA07002140F233438DE80E000A460B4686
:100CB00000F0BCF903B000BD0EB540F23341029123
:100CC0000021CDE900110A460B4600F0AFF903B050
:100CD00000BD70B5C1F30A5201F000450024C1F314
:100CE000130140F2FF3341F480119A4201DA0020EF
:100CF00070BD40F233439A42A2F2334203DC5242C7
:100D000000F0A5F800E090402C43F1D0404270BDC7
:100D1000C1F30A5210B5C1F3130140F2FF3341F49D
:100D200080119A4201DA002010BD40F233439A420A
:100D3000A2F2334203DC524200F089F810BD904029
:100D400010BDC1F30A52C1F3130140F2FF3341F465
:100D500080119A4202DA00200146704740F2334384
:100D60009A42A2F2334202DC524200F070B800F024
:100D70005FB800F0004230F000400AD0C10D01F52C
:100D80006071C0F3160042EA0151C20840071143E6
:100D9000704700200146704730B5041E71F1000411
:100DA00004DB4FF00044404264EB0101141E73F178
:100DB000000405DB1C464FF00043524263EB040382
:100DC0008B4208BF824230BD30B5041E71F1000471
:100DD00004DB4FF00044404264EB0101141E73F148
:100DE000000405DB1C464FF00043524263EB040352
:100DF000994208BF904230BD01F0004330B421F069
:100E0000004150EA010206D00A0DA2F56072C1F35A
:100E10001301002A02DC30BC00207047440F44EA72
:100E2000C104C100E01830BC00EBC25000F0B8B8FB
:100E3000202A04DB203A00FA02F10020704791409A
:100E4000C2F1200320FA03F3194390407047202A8F
:100E500004DB203A21FA02F00021704721FA02F364
:100E6000D040C2F120029140084319467047202A21
:100E700006DBCB17203A41FA02F043EAE07306E0C2
:100E800041FA02F3D040C2F12002914008431946D2
:100E9000704700000FB4002300B589B00CA9009181
:100EA0000B996FF00042CB601E4B06931E4B0793CD
:100EB0000423CDE901321D4A089202466B46002008
:100EC00000F0F4F909B05DF814FB70B586B0064681
:100ED0004FF0FF300091CDE90101002015460C468E
:100EE00004903246694604A8FFF7D4FF03460498ED
:100EF000211825B108B10A4600E022462A600028E0
:100F00000DD0002B02DD0098884208D0081B009409
:100F1000CDE901043246694604A8FFF7BBFF06B0DD
:100F200070BD0000E51400080315000899110008C1
:100F30002DE9F04791460F4680460446002614F8F6
:100F4000015B2DB100F024F90068405DC007F6D1C7
:100F50002B2D02D02D2D18D0641E4A46394620462E
:100F600000F0E0FA27B13968A14201D1C7F800804A
:100F700071054FF002040BD54042002803DD1AF042
:100F8000F5FE0460A007BDE8F08746F48066E4E75C
:100F90000028F8DA1AF0EAFE04606FF00040F2E789
:100FA0000029A8BF7047401C490008BF20F001007D
:100FB000704710B4B0FA80FC00FA0CF050EA01045B
:100FC00004BF10BC704749B1CCF1200421FA04F4ED
:100FD00011FA0CF118BF012121430843A3EB0C01C6
:100FE000CB1D4FEA00614FEA102042BF002010BC29
:100FF000704700EBC35010440029A4BF10BC7047D9
:10100000401C490008BF20F0010010BC704710B51B
:10101000141E73F1000408DA401C41F1000192181B
:101020005B411A4301D120F0010010BD2DE9F04DC4
:1010300092469B4611B1B1FA81F202E0B0FA80F219
:1010400020329046FFF7F4FE04460F4640EA0A00BD
:1010500041EA0B0153465A46084313D0114653EA5E
:10106000010019D0C8F140025046FFF7F0FE0546D6
:101070000E46504659464246FFF7DAFE084305D071
:10108000012004E020463946BDE8F08D00200543EC
:1010900046EAE0762C4337430A986305E40AA0EB5E
:1010A00008000022FD0A44EA47540A3002D5002015
:1010B0000146E9E7010510196941DDE90845001914
:1010C0006941BDE8F04DA2E72DE9F04D00231A4635
:1010D0001B1A8A4103DB00200146BDE8F08DC1F3F5
:1010E0000A52C1F3130141F480154FF0000BD107F0
:1010F00002D100186D41521E0027044640F2FF1134
:10110000384601EB620A3E468046024600204FF414
:101110008011FFF79CFEC2197141BB1846EB01001C
:10112000B4EB030C75EB000C04D3E41A65EB00057B
:1011300017460E46241908F101006D4180463428F7
:10114000E3DDF91946EB0600091BA84103D24FF075
:10115000FF32134601E0002213461BEB070046EB6B
:101160000A51BDE8F04DFFF752BF0000064C074D95
:1011700006E0E06840F0010394E807009847103467
:10118000AC42F6D3FFF70AF84CD801086CD8010836
:101190000048704734D7010810B50446FFF7F8FF40
:1011A0000068005D00F0010010BD00002DE9FF4F58
:1011B000087881B09946FF2805D0491C2D2804D015
:1011C0000024002308E000230BE00124F9E703EBEF
:1011D000830300EB4303491C0878FF28F7D104B1CF
:1011E0005B4200200090147801462D2C01D02B2C5E
:1011F00004D1521C2D2C12D0002400940025167806
:10120000FF2E0ED00A24A0FB04C801FB0481002796
:1012100000FB0711521C16EB0C006941EFE701249B
:10122000EBE7994450EA01020ED00024AA4D26466D
:10123000DFF8A88200F0D3F982468B46B9F10000AE
:1012400009DAC9F100071BE001980021C0E900118B
:1012500005B0BDE8F08F074612E0F80707D0224638
:101260002B4630464146FFF735FC06468846224667
:101270002B4610461946FFF72DFC04460D467F10FD
:10128000002FEAD1B9F1000F324643465046594685
:1012900002DAFFF791FC01E0FFF71CFC009A0AB1AB
:1012A00081F00041019AC2E90001D1E72DE9FF4F29
:1012B0001F468DB0D7E901464FF0FF382E20454636
:1012C0004FF000090B90B9696D1C0E988847396A78
:1012D000824688470028F6D1BAF1FF3F0AD024F4AD
:1012E000D064002E11DDBAF12B0F08D0BAF12D0F0A
:1012F0000BD102E0404611B0ABE744F48064B96919
:101300006D1C0E9888478246761E6946600501D599
:101310002D2000E02B208DF8000001F1010B0DF1D4
:10132000200809E0B9696D1C0E98884782460F981D
:1013300044F40074761E0560002E02DDBAF1300F11
:10134000F0D00B998A453ED144F0800406E00F9915
:10135000681CA9F1010944F400740860B9696D1CA6
:10136000761E0E98884782463028F0D02BE00B99E5
:101370008A4505D1200603D444F08004761E18E087
:1013800050461BF0E2FE08B30DF11301761E44F443
:1013900000748B4508D2AAF130000BF8010B20062F
:1013A00007D5A9F1010003E0200602D409F10100EC
:1013B0008146A00502D50F99681C0860B9696D1CAB
:1013C0000E9888478246002ED1DC53E0002E51DD76
:1013D000BAF1650F02D0BAF1450F4BD1A00549D53E
:1013E000B9696D1C24F44074761E0E9888478246B5
:1013F000002E0CDD2B2804D0BAF12D0F07D144F4B8
:101400008074B9696D1C0E9888478246761EE00587
:1014100001D52D2100E02B2108F8011BCDF82C80EF
:1014200021E00DF12901761E44F4007488450CD2A8
:10143000AAF1300010F0FF0088F8000002D10B99EB
:10144000884509D908F1010806E0E00501D52448DE
:1014500001E042F20F708146B9696D1C0E98884711
:1014600082460F980560002E04DD50461BF06DFE8D
:101470000028D6D1F9690E988847FF208BF8000024
:1014800088F800000020069007904B466A4608A99D
:1014900006A8FFF78BFEA00502D46FF001002AE733
:1014A00014F0240F0AD0E00714D1DDE906123868E1
:1014B000031D3B600068C0E900120BE0DDE9060196
:1014C000FFF79AFC0146E00704D13868021D3A6034
:1014D0000068016028460EE7000024400000F03F4D
:1014E000F1D8FFFF426842B1016811F8013B23B116
:1014F000521EC0E90012184670470121C160881EC3
:10150000704742685AB1C368016843B983688B4227
:1015100005D0491E521CC0E90012002070474FF050
:10152000FF3070472DE9F05F8246007800271546AE
:101530008B460AF10104B946302801D09DB113E071
:1015400014F8010B0127782803D0582801D045B1A1
:101550000AE00DB1102D07D10027102514F8010B5A
:1015600002E0082500E00A250026B0460EE005FB53
:10157000080005FB06F1012701EB10461FFA80F871
:10158000B6F5803F00D3B94614F8010B294600F0A8
:1015900018F80028EBDABBF1000F05D00FB1641E7C
:1015A00000E05446CBF80040B9F1000F06D01AF025
:1015B000DDFB02210160C81EBDE8F09F48EA06403D
:1015C000FAE73A2800D2303820F02002412A01D32D
:1015D000A2F13700884201D34FF0FF3070470EB5BB
:1015E00040F2334202920022CDE900221346FFF777
:1015F0001DFD03B000BD70B58C1810F8015B15F02F
:10160000070301D110F8013B2A1106D110F8012B74
:1016100003E010F8016B01F8016B5B1EF9D12B0799
:1016200005D40023521E0DD401F8013BFAE710F84F
:10163000013BCB1A921C03E013F8015B01F8015B3C
:10164000521EF9D5A142D8D3002070BD00202249F6
:10165000088040F20910214908804FF48060204939
:101660000880204908806FF484701F4908804FF477
:1016700080601E4908801E49088000201D4908809E
:1016800040F209101C4908804FF480601B49088013
:101690001B4908806FF484701A4908804FF48060F9
:1016A000194908801949088000201949088040F22A
:1016B000DE30184908804FF48060174908801749C8
:1016C00008804FF62240164908804FF48060154983
:1016D00008801549088070473C0000203E0000202B
:1016E000400000204200002044000020460000206E
:1016F000480000204A0000204C0000204E0000203E
:10170000500000205200002054000020560000200D
:10171000580000205A0000205C0000205E000020DD
:101720006000002062000020640000202DE9FF5FBF
:101730002DED028B074689469246DDF848B0DDF86C
:1017400040800BF00100002848D1002442E0002531
:1017500036E0002631E059F8260000EBC40090ED99
:10176000002BB0EE421AF0EE621A05FB08600AEB9D
:10177000C00090ED002BB0EE420AF0EE620A53EC8E
:10178000102B51EC110BFFF7A5F941EC180B57F892
:10179000240000EBC50090ED001BB0EE410AF0EE16
:1017A000610A53EC102B51EC180BFFF7ECF857F8CB
:1017B000242002EBC50203C2761C4645CBDB6D1C20
:1017C0000BF00200002801DD601C00E01198A84227
:1017D000BFDC641C05988442B9DB7BE0002476E022
:1017E00000256AE0002665E0B44231DC59F82600A5
:1017F00000EBC40090ED002BB0EE421AF0EE621A3E
:1018000005FB08600AEBC00090ED002BB0EE420A29
:10181000F0EE620A53EC102B51EC110BFFF75AF962
:1018200041EC180B57F8240000EBC50090ED001BAD
:10183000B0EE410AF0EE610A53EC102B51EC180B9C
:10184000FFF7A1F857F8242002EBC50203C230E0ED
:1018500059F8240000EBC60090ED002BB0EE421AC0
:10186000F0EE621A05FB08600AEBC00090ED002B59
:10187000B0EE420AF0EE620A53EC102B51EC110B61
:10188000FFF728F941EC180B57F8240000EBC500CE
:1018900090ED001BB0EE410AF0EE610A53EC102B04
:1018A00051EC180BFFF76FF857F8242002EBC50234
:1018B00003C2761C464597DB6D1C0BF00200002826
:1018C00001DD601C00E01198A8428BDC641C0598C7
:1018D000844285DBBDEC028BBDE8FF9F2DE9FF5FF5
:1018E0002DED028B074689469246DDF848B0DDF8BB
:1018F00040800BF00100002848D1002442E0002580
:1019000036E0002631E059F8240000EBC60090EDE7
:10191000002BB0EE421AF0EE621A05FB08600AEBEB
:10192000C00090ED002BB0EE420AF0EE620A53ECDC
:10193000102B51EC110BFFF7CDF841EC180B57F8B9
:10194000240000EBC50090ED001BB0EE410AF0EE64
:10195000610A53EC102B51EC180BFFF714F857F8F1
:10196000242002EBC50203C2761C4645CBDB6D1C6E
:101970000BF00200002801DD601C00E01198A84275
:10198000BFDC641C05988442B9DB7BE0002476E070
:1019900000256AE0002665E0A64231DC59F8240003
:1019A00000EBC60090ED002BB0EE421AF0EE621A8A
:1019B00005FB08600AEBC00090ED002BB0EE420A78
:1019C000F0EE620A53EC102B51EC110BFFF782F88A
:1019D00041EC180B57F8240000EBC50090ED001BFC
:1019E000B0EE410AF0EE610A53EC102B51EC180BEB
:1019F000FEF7C9FF57F8242002EBC50203C230E00E
:101A000059F8260000EBC40090ED002BB0EE421A0E
:101A1000F0EE621A05FB08600AEBC00090ED002BA7
:101A2000B0EE420AF0EE620A53EC102B51EC110BAF
:101A3000FFF750F841EC180B57F8240000EBC500F5
:101A400090ED001BB0EE410AF0EE610A53EC102B52
:101A500051EC180BFEF797FF57F8242002EBC50254
:101A600003C2761C464597DB6D1C0BF00200002874
:101A700001DD601C00E01198A8428BDC641C059815
:101A8000844285DBBDEC028BBDE8FF9F2DE9FF5F43
:101A90002DED028B8A469346DDE911971099C90016
:101AA00001FB07F01BF064FC8046149800F0010075
:101AB000002849D1002443E000253EE09FED8A0B39
:101AC00004FB075008EBC00080ED000B002631E05E
:101AD0005BF8250000EBC60090ED002BB0EE420A4B
:101AE000F0EE620A04FB09600AEBC00090ED002BE7
:101AF000B0EE421AF0EE621A53EC102B51EC110BBF
:101B0000FEF7E8FF41EC180B04FB075008EBC000A0
:101B100090ED001BB0EE410AF0EE610A53EC102B81
:101B200051EC180BFEF72FFF04FB075208EBC20223
:101B300003C2761C4E45CBDB6D1CBD42BEDB641C74
:101B400010988442B8DB7CE0002477E0002572E046
:101B50009FED650B04FB075008EBC00080ED000B08
:101B6000002665E0AE4231DC5BF8250000EBC600E4
:101B700090ED002BB0EE420AF0EE620A04FB096021
:101B80000AEBC00090ED002BB0EE421AF0EE621AA4
:101B900053EC102B51EC110BFEF79CFF41EC180B92
:101BA00004FB075008EBC00090ED001BB0EE410AAB
:101BB000F0EE610A53EC102B51EC180BFEF7E3FE2C
:101BC00004FB075208EBC20203C230E05BF82600B8
:101BD00000EBC50090ED002BB0EE420AF0EE620A79
:101BE00004FB09600AEBC00090ED002BB0EE421A36
:101BF000F0EE621A53EC102B51EC110BFEF76AFF5A
:101C000041EC180B04FB075008EBC00090ED001BE3
:101C1000B0EE410AF0EE610A53EC102B51EC180BB8
:101C2000FEF7B1FE04FB075208EBC20203C2761CAA
:101C30004E4597DB6D1CBD428ADB641C10988442C4
:101C400084DB002446E0002539E0002634E005FB73
:101C50000761059800EBC10090ED002BB0EE420A41
:101C6000F0EE620A04FB076008EBC00090ED002B69
:101C7000B0EE421AF0EE621A53EC102B51EC110B3D
:101C8000FEF728FF41EC180B029850F8240000EBF7
:101C9000C50090ED001BB0EE410AF0EE610A53EC76
:101CA000102B51EC180BFEF76EFE029A52F824200E
:101CB00002EBC50203C2761CBE42C8DB6D1C149841
:101CC00000F00200002801DD601C00E01398A8422B
:101CD000BBDC641C10988442B5DB40461BF0D6FA8E
:101CE000BDEC028BBDE8FF9F00000000000000007B
:101CF0002DE9FF5F2DED028B8A469346DDE91197B2
:101D00001099C90001FB07F01BF032FB80461498C4
:101D100000F00100002849D1002443E000253EE006
:101D20009FED8A0B04FB075008EBC00080ED000B11
:101D3000002631E05BF8260000EBC50090ED002B9B
:101D4000B0EE420AF0EE620A04FB09600AEBC00042
:101D500090ED002BB0EE421AF0EE621A53EC102B0D
:101D600051EC110BFEF7B6FE41EC180B04FB0750CB
:101D700008EBC00090ED001BB0EE410AF0EE610AE6
:101D800053EC102B51EC180BFEF7FDFD04FB075232
:101D900008EBC20203C2761C4E45CBDB6D1CBD4274
:101DA000BEDB641C10988442B8DB7CE0002477E042
:101DB000002572E09FED650B04FB075008EBC000A7
:101DC00080ED000B002665E0B54231DC5BF82600B3
:101DD00000EBC50090ED002BB0EE420AF0EE620A77
:101DE00004FB09600AEBC00090ED002BB0EE421A34
:101DF000F0EE621A53EC102B51EC110BFEF76AFE59
:101E000041EC180B04FB075008EBC00090ED001BE1
:101E1000B0EE410AF0EE610A53EC102B51EC180BB6
:101E2000FEF7B1FD04FB075208EBC20203C230E02B
:101E30005BF8250000EBC60090ED002BB0EE420AE7
:101E4000F0EE620A04FB09600AEBC00090ED002B83
:101E5000B0EE421AF0EE621A53EC102B51EC110B5B
:101E6000FEF738FE41EC180B04FB075008EBC000EE
:101E700090ED001BB0EE410AF0EE610A53EC102B1E
:101E800051EC180BFEF77FFD04FB075208EBC20272
:101E900003C2761C4E4597DB6D1CBD428ADB641C79
:101EA0001098844284DB002446E0002539E00026B7
:101EB00034E005FB0761059800EBC10090ED002BB5
:101EC000B0EE420AF0EE620A04FB076008EBC000C5
:101ED00090ED002BB0EE421AF0EE621A53EC102B8C
:101EE00051EC110BFEF7F6FD41EC180B029850F87F
:101EF000240000EBC50090ED001BB0EE410AF0EEAF
:101F0000610A53EC102B51EC180BFEF73CFD029AC2
:101F100052F8242002EBC50203C2761CBE42C8DB85
:101F20006D1C149800F00200002801DD601C00E028
:101F30001398A842BBDC641C10988442B5DB404671
:101F40001BF0A4F9BDEC028BBDE8FF9F0000000070
:101F5000000000002DE9F04706460F4691469A46DC
:101F6000DDF8208008F0010080BB00242BE0002574
:101F70001FE057F8240000EBC50090ED002BB0EEF9
:101F8000420AF0EE620A56F8240000EBC50090ED1C
:101F9000002BB0EE421AF0EE621A53EC102B51EC0B
:101FA000110BFEF7F0FC56F8242002EBC50203C229
:101FB0006D1C08F00200002801DD601C00E05046A6
:101FC000A842D6DC641C4C45D1DB52E0FFE700247C
:101FD0004DE0002541E0A5421FDC57F8240000EB4E
:101FE000C50090ED002BB0EE420AF0EE620A56F802
:101FF000240000EBC50090ED002BB0EE421AF0EE8D
:10200000621A53EC102B51EC110BFEF7BCFC56F886
:10201000242002EBC50203C21EE057F8250000EBA6
:10202000C40090ED002BB0EE420AF0EE620A56F8C2
:10203000240000EBC50090ED002BB0EE421AF0EE4C
:10204000621A53EC102B51EC110BFEF79CFC56F866
:10205000242002EBC50203C26D1C08F00200002818
:1020600001DD601C00E05046A842B4DC641C4C4515
:10207000AFDBBDE8F087000010B52DED0E8B82B010
:10208000002001909FEDFE0AB0EE40AAFD480078C6
:1020900000287DD00020FB490870FB48007800280C
:1020A00077D00020F8490870F84890ED081BB0EE92
:1020B000410AF0EE610A9FEDF61B53EC112B51EC37
:1020C000100BFEF707FDF44AC2E90601EF4890ED58
:1020D000021BB0EE410AF0EE610A9FEDED1B53ECDE
:1020E000112B51EC100BFEF7F5FCEB4AC2E9040191
:1020F000E64890ED100B104680ED080BE34890F891
:102100003100114681F84500E04890F8320081F82E
:102110004600DE4890ED0E1BB0EE410AF0EE610A7B
:1021200051EC100BFEF768FEDB49C867D74890F802
:102130003200072802DD0120D8490870D84800780D
:10214000D54981F8A902D148007840B20871CF483A
:10215000407840B24871CD48807840B28871CB4811
:10216000C0780881084690ED061BB0EE410AF0EEFB
:10217000610A9FEDCC1B53EC112B51EC100BFEF7B9
:1021800023FE18D2C44890ED041BB0EE410A01E0D2
:102190009AE322E0F0EE610A9FEDC21B53EC112B93
:1021A00051EC100BFEF7F8FD05D0BB48C07A40F0AB
:1021B0000300B949C872BD480078322804D1012013
:1021C000B54981F8980203E00520B34981F89802E7
:1021D00007F0D2FC0120B6490870B6480078002804
:1021E0007DD00020B3490870B348007840B2AA49B6
:1021F0000871B148407840B24871AF48807840B229
:102200008871AD48C0780881AB4890ED061BB0EEF0
:10221000410AF0EE610A9FED9E1B53EC112B51EC2D
:10222000100BFEF757FC9C4AC2E90601A24890ED4C
:10223000021BB0EE410AF0EE610A9FED951B53ECD4
:10224000112B51EC100BFEF745FC934AC2E9040137
:10225000104690ED061BB0EE410AF0EE610A9FEDCC
:10226000911B53EC112B51EC100BFEF7ADFD16D268
:10227000894890ED041BB0EE410AF0EE610A9FED33
:10228000891B53EC112B51EC100BFEF785FD06D08A
:102290008148C07A40F003007F49C87202E0002004
:1022A0007D49C8729FED850B834880ED0C0B9FED37
:1022B000830B80ED0A0B01207F4981F83900084625
:1022C00090ED0A1BB0EE410AF0EE610A9FED7D1B16
:1022D00053EC112B51EC100BFEF7FCFB00E0B4E0CB
:1022E00041EC180B744890F83900012817D1724856
:1022F00090ED0C1BB0EE410AF0EE610A9FED641BFD
:1023000053EC112B51EC100BFEF7E4FB41EC190BD5
:1023100051EC190BFEF770FD5F49086406E09FED74
:10232000619B9FED570A5C4880ED100AB0EE490AA8
:10233000F0EE690A1AF0C0F9B0EE40BAF0EE60BAF9
:10234000B0EE490AF0EE690A1AF046F9B0EE40CA5A
:10235000F0EE60CA53EC1B2B51EC180BFEF7BAFBE6
:102360004D4AC2E90A0153EC1C2B51EC180BFEF745
:10237000B1FB494AC2E90C014F4890F839000128E5
:1023800009D11046C07A40F040001146C8720120C1
:1023900081F8440008E04048C07A00F0BF003E49A0
:1023A000C872002081F844003B48C07A40F0100019
:1023B0003949C8724048808F08803F4890F83B00F8
:1023C00040B288703C4890F83A0040B2C8703A4831
:1023D000808F3E490880384890F83B0040B28870B2
:1023E000354890F83A0040B2C870334890F84A0037
:1023F0004E2803D100202849887219E02E4890F811
:102400004A00412803D101202349887210E02A485C
:1024100090F84A00442803D102201F49887207E03F
:10242000254890F84A00452802D1FF201A498872B1
:1024300021480079412805D0002017498872C872C8
:1024400081F84500012022490870224800780028C0
:102450007ED000201F4908701F4890ED081BB0EE89
:10246000410AF0EE610A9FED171B53EC112B51EC62
:10247000100BFEF72FFB41EC180B17482EE0000065
:10248000000000000D010020D9000020E81100200C
:10249000399D52A246DF913F20180020E60000201F
:1024A000DF0000200000000000000000C400002049
:1024B000D6020020DA000020781200200000000080
:1024C000000024403BEC0F325476E03FE017002040
:1024D000D7020020DB000020D012002090F83A0044
:1024E000012817D1F94890ED001BB0EE410AF0EE3B
:1024F000610A1FED191B53EC112B51EC100BFEF769
:10250000E9FA41EC190B51EC190BFEF775FCF04997
:1025100008640AE01FED1D0BB0EE409AF0EE609AE1
:102520001FED290AEA4880ED100AB0EE490AF0EEE4
:10253000690A1AF0C1F8B0EE40BAF0EE60BAB0EE37
:10254000490AF0EE690A1AF047F8B0EE40CA00E016
:1025500056E0F0EE60CA53EC1B2B51EC180BFEF763
:10256000B9FADB4AC2E90A0153EC1C2B51EC180BF7
:10257000FEF7B0FAD64AC2E90C01D44890F83A0006
:10258000012809D11046C07A40F040001146C872B7
:10259000012081F8440008E0CD48C07A00F0BF0077
:1025A000CB49C872002081F84400C948C07A40F085
:1025B0001000C749C872C54890F839004E2802D1AA
:1025C0000020887219E0C14890F83900412803D1F1
:1025D0000120BF49887210E0BC4890F839004428B7
:1025E00003D10220BA49887207E0B84890F8390050
:1025F000452802D1FF20B64988720120B5490870EC
:10260000B5480078A0B30020B3490870B34890EDF6
:10261000010AAF4880EDA70AB04890ED020AAC4825
:1026200080EDA80AAD4890ED020A20EE000AD0ED38
:10263000010A90ED011A00EE810A10EE101A084608
:10264000FEF797FB41EC1E0BB0EE4E0AF0EE6E0A61
:102650001AF096F8B0EE40DAF0EE60DA51EC1D0BAD
:10266000FEF7CAFB9A49C1F8A40201209C490870F0
:102670009C480078E8B300209A490870002408E0DC
:10268000994850F824109248A03040F82410601C5B
:10269000C4B2062CF4DB9448001F90ED081BB0EE8A
:1026A000410AF0EE610A51EC100BFEF7A5FB8849D8
:1026B00088678D48001F90ED0A1BB0EE410AF0EECE
:1026C000610A51EC100BFEF797FB8149C8678648F9
:1026D000001F90ED0C1BB0EE410AF0EE610A51ECC8
:1026E000100BFEF789FB7A49C1F880007E48001F75
:1026F00000E032E090ED081BB0EE410AF0EE610A16
:1027000051EC100BFEF778FB7849C8607648001F43
:1027100090ED0A1BB0EE410AF0EE610A51EC100B8D
:10272000FEF76AFB714908616F48001F90ED0C1BB2
:10273000B0EE410AF0EE610A51EC100BFEF75CFBC3
:102740006A49486106216248A03007F0CDF967491F
:10275000087001205E4981F88400654800780028EF
:1027600071D0002062490870002408E0614850F8E8
:1027700024105748883040F82410601CC4B2062C3E
:10278000F4DB002411E05C48015D5148B83001558C
:1027900058481830015D594801555748A038015D27
:1027A0005648A0300155601CC4B2A02CEBDB0621BA
:1027B0004748883007F098F94C4948700846007837
:1027C00000EE100AF8EE400A0846407800EE100AC3
:1027D000B8EE400A80EE801A084680ED011A1FED1F
:1027E000D80AB0EE40AA002001900BE04348A03880
:1027F0000199405C00EE100AB8EE400A30EE0A0A79
:10280000B0EE40AA01A93248A03009F013FE0190B1
:10281000B0F5005FEAD33548007828B91FEDE80A23
:10282000324880ED020A0AE03048007800EE100AD3
:10283000B8EE400ACAEE000A2C48C0ED020A012098
:10284000234981F884002E480078012871D12D4851
:102850000078012803D01F480078012869D10020A2
:1028600027490870274908701A490870012026492D
:1028700008702649087026480078F8B9254800787D
:10288000012802D12449087018E02448C078A8B96A
:10289000224890F88D0070B921480078401C2049EA
:1028A000087008460078052808DB00200870012021
:1028B0001949087002E0012017490870194800788A
:1028C00018B901201849086033E02FE0D012002029
:1028D00020180020D8020020DC0000201013002067
:1028E000D9020020DD00002024130020A01B0020BE
:1028F000DE0000205C130020B414002078190020B2
:10290000D6020020D70200200C0100200E0100207A
:102910001E0100201301002008010020E811002002
:10292000DA020020C30000204801002001200349F2
:10293000086002B0BDEC0E8B10BD00004C01002001
:1029400010B509F02BFF17480088000A16490870D7
:1029500014480078487015480088000A88701348A9
:102960000078C87012480088000A08711048007882
:1029700048711AF083FB0C4988711AF07FFB0A49F1
:10298000C871002404E000200A490855601CC4B244
:10299000082CF8DB07490448FDF75EFE064908707D
:1029A00010BD0000360000205D010020380000202E
:1029B0003A000020550100205401002010B51021DC
:1029C000364806F0D4FD4FF40041344806F0CFFD00
:1029D00005201AF003FC4FF40041304806F0C5FD15
:1029E0001E201AF0FBFB142016F0E8FBB62016F0B0
:1029F000E5FB32201AF0F2FB4FF40041274806F0C5
:102A0000B6FD03201AF0CEFB4FF40041234806F038
:102A1000ACFD1E201AF0E2FB0F2016F0CFFB0320C6
:102A200016F0CCFB32201AF0D9FB4FF400411B48C2
:102A300006F09DFD05201AF0D1FB4FF40041174828
:102A400006F093FD1E201AF0C9FB132016F0B6FB0A
:102A5000002016F0B3FB32201AF0C0FB4FF4004107
:102A60000E4806F084FD05201AF0B8FB4FF4004133
:102A70000A4806F07AFD1E201AF0B0FB102016F06E
:102A80009DFB082016F09AFB32201AF0A7FB4FF4AA
:102A90000041024806F06BFD10BD0000000002403E
:102AA00010B51021324806F062FD4FF40041304865
:102AB00006F05DFD1E201AF091FB10212C4806F057
:102AC00054FD05201AF08AFB142016F077FBB6207F
:102AD00016F074FB32201AF081FB1021244806F016
:102AE00046FD03201AF05EFB1021214806F03DFD53
:102AF0001E201AF073FB0F2016F060FB032016F067
:102B00005DFB32201AF06AFB1021194806F02FFDF8
:102B100005201AF063FB1021154806F026FD1E2043
:102B20001AF05CFB132016F049FB002016F046FB60
:102B300032201AF053FB10210D4806F018FD052035
:102B40001AF04CFB10210A4806F00FFD1E201AF067
:102B500045FB102016F032FB052016F02FFB32202B
:102B60001AF03CFB1021024806F001FD10BD0000E8
:102B70000000024070B52DED088B04460D4694ED23
:102B8000102BB0EE420AF0EE620A94ED102BB0EE7C
:102B9000421AF0EE621A53EC102B51EC110BFDF7B8
:102BA00099FF41EC1A0B94ED0E2BB0EE420AF0EEB9
:102BB000620A94ED0E2BB0EE421AF0EE621A53EC5C
:102BC000102B51EC110BFDF785FF41EC1B0B53EC67
:102BD0001A2BFDF7D8FE41EC190BB0EE490AF0EEC6
:102BE000690A19F0CDFDB0EE408AF0EE608A9FEDE3
:102BF000390B53EC102B51EC180BFEF7CDF805D226
:102C00009FED340BB0EE408AF0EE608A94ED002B1D
:102C1000B0EE421AF0EE621A94ED062BB0EE420AC4
:102C2000F0EE620A19F0C4FB85ED000B94ED0C1B6D
:102C3000B0EE410AF0EE610A51EC100B81F0004158
:102C400041EC1A0B53EC182BFDF7B6FF41EC190BB6
:102C5000B0EE490AF0EE690A19F03EFA85ED020B72
:102C600094ED102BB0EE421AF0EE621A94ED0E2B9A
:102C7000B0EE420AF0EE620A19F09AFB85ED040B01
:102C800095ED001BB0EE410AF0EE610A9FED131BBB
:102C900053EC112B51EC100BFDF775FE41EC190BA9
:102CA0009FED0E0B53EC102BFEF776F80FD295ED3F
:102CB000001BB0EE410AF0EE610A9FED0A1B53ECD7
:102CC000112B51EC100BFDF75EFEC5E90001BDECC8
:102CD000088B70BD2D431CEBE2361A3F000000004C
:102CE0000000F03F182D4454FB21194070B52DED24
:102CF000088B04460D46164695ED042BB0EE420AAD
:102D0000F0EE620A94ED042BB0EE421AF0EE621A75
:102D100053EC102B51EC110BFDF7DCFE41EC180BC2
:102D200095ED022BB0EE420AF0EE620A94ED022B12
:102D3000B0EE421AF0EE621A53EC102B51EC110B6C
:102D4000FDF7C8FE41EC1A0B95ED002BB0EE420AE0
:102D5000F0EE620A94ED002BB0EE421AF0EE621A29
:102D600053EC102B51EC110BFDF7B4FE41EC1B0B97
:102D700053EC1A2BFDF707FE41EC190B53EC182B03
:102D8000FDF701FEC6E9000195ED042BB0EE420A05
:102D9000F0EE620A94ED0A2BB0EE421AF0EE621ADF
:102DA00053EC102B51EC110BFDF794FE41EC180B7A
:102DB00095ED022BB0EE420AF0EE620A94ED082B7C
:102DC000B0EE421AF0EE621A53EC102B51EC110BDC
:102DD000FDF780FE41EC1A0B95ED002BB0EE420A98
:102DE000F0EE620A94ED062BB0EE421AF0EE621A93
:102DF00053EC102B51EC110BFDF76CFE41EC1B0B4F
:102E000053EC1A2BFDF7BFFD41EC190B53EC182BBB
:102E1000FDF7B9FDC6E9020195ED042BB0EE420ABB
:102E2000F0EE620A94ED102BB0EE421AF0EE621A48
:102E300053EC102B51EC110BFDF74CFE41EC180B31
:102E400095ED022BB0EE420AF0EE620A94ED0E2BE5
:102E5000B0EE421AF0EE621A53EC102B51EC110B4B
:102E6000FDF738FE41EC1A0B95ED002BB0EE420A4F
:102E7000F0EE620A94ED0C2BB0EE421AF0EE621AFC
:102E800053EC102B51EC110BFDF724FE41EC1B0B06
:102E900053EC1A2BFDF777FD41EC190B53EC182B73
:102EA000FDF771FDC6E90401BDEC088B70BD0000A3
:102EB00030B50346C41700EB14742211D41702EB8B
:102EC00014742111CC1701EB1474C4F307142A4DA8
:102ED0002C700246C31700EB13731911CB1701EBCB
:102EE00013731C112B461B78A4EB03132C46637041
:102EF0000146C21700EB1272131122461278A3EB9F
:102F0000022322465278A3EB021223469A701946F6
:102F10000978A0EB013219464978A2EB0122194643
:102F20008978A2EB01111A46D1700021134A117061
:102F30001DE01149114A1278895C092909DC0E4902
:102F40000E4A1278895C30310B4A0C4B1B78D154F5
:102F500008E00949094A1278895C3731064A074B6B
:102F60001B78D15405490978491C044A117003495A
:102F700009780429DDDB30BDF80900203A02002081
:102F80000146C21700EB1272C2F30712174B1A70F8
:102F900019460978A0EB01111A4651700021144A14
:102FA00011701EE01149124A1278895C09290ADC65
:102FB0000E490F4A1278895C3031CAB20B490C4B6A
:102FC0001B78CA5408E00949094A1278895C3731EC
:102FD000064A074B1B78D15405490978491C044A15
:102FE0001170034909780229DCDB7047F8090020D9
:102FF0003B02002010B500242348006823490860E4
:103000002148001D006848601F480830006888603B
:10301000084600881E4908801C480068000C48804B
:103020001A488088888019484068000CC880174872
:103030000089088115488068000C488100BF1FE0A6
:10304000134931F81400FFF733FF124800780021CC
:1030500001EB8401104A50540E484078012101EBE5
:10306000840150540B488078022101EB84015054B4
:103070000848C078032101EB84015054601CC4B29D
:10308000062CDDDB10BD0000107AFF1F801C002025
:10309000741C0020F809002063170020164890EDEA
:1030A000001AF0EE001AC1EE210AF4EEC00AF1EEA9
:1030B00010FA08D2D0ED000AB0EE001AC0EE811A64
:1030C000B0EE610A17E00C48D0ED000AB1EE601ACC
:1030D000F0EE001AC1EE210AF4EEC00AF1EE10FA89
:1030E00009DDD0ED000AF1EE600AB0EE001AC0EE84
:1030F000811AB0EE610A7047380100200B49096857
:1031000019B10021094A11600DE044F6206188429E
:1031100003DD0749098808B205E00649884202DA5A
:103120000349098808B2024908607047E801002095
:10313000EC010020E0B1FFFF0E48D0ED000AB4EE34
:10314000E00AF1EE10FA04DDD0ED000AB0EE600AFC
:103150000FE00848D0ED000AF1EE600AB4EEE00A94
:10316000F1EE10FA05D2D0ED000AF1EE600AB0EEF1
:10317000600A7047380100200B49096819B1002125
:10318000094A11600DE044F62061884203DD0749D9
:10319000098808B205E00649884202DA034909882D
:1031A00008B2024908607047F0010020F4010020D5
:1031B000E0B1FFFF0B49096819B10021094A11600C
:1031C0000DE044F62061884203DD0749098808B212
:1031D00005E00649884202DA0349098808B2024933
:1031E00008607047F8010020FC010020E0B1FFFFFB
:1031F0000B49097819B10021094A11700CE0B0F5AA
:10320000FA6F03DD0749B1F9000005E010F5FA6F28
:1032100002DA0449B1F90000024908807047000051
:10322000D4010020D60100200B49097819B10021F2
:10323000094A11700CE0B0F5FA6F03DD0749B1F9E6
:10324000000005E010F5FA6F02DA0449B1F9000058
:103250000249088070470000D0010020D201002000
:103260000B49097819B10021094A11700CE0B0F539
:10327000FA6F03DD0749B1F9000005E010F5FA6FB8
:1032800002DA0449B1F900000249088070470000E1
:10329000CC010020CE01002010B50A48007801289A
:1032A0000ED10948007858B900200649087007482F
:1032B000007807490880074818F02CF916F0BAFF83
:1032C00010BD00000B02002021010020060200209A
:1032D0000A0100209715002001460020D64AD74B4E
:1032E0001B78D154D54A1278521CD44B1A701A4606
:1032F0001278012A22D1D04A1278412A03D102221F
:10330000CF4B1A701AE0CC4A1278602A03D10F22F0
:10331000CB4B1A7012E0C84A1278612A03D12D22D1
:10332000C74B1A700AE0C44A1278652A03D10F22EB
:10333000C34B1A7002E00122C14B1A70BF4A1278C7
:10334000BF4B1B789A427CDB0022BC4B1A70BA4AF6
:103350001078012801D0062807D10122B94B1A7034
:10336000B94A10700122B94B1A70412805D0502873
:1033700003D0512801D0552807D10122B14B1A7032
:10338000B34A10700222B14B1A7065282DD1AA4A97
:1033900052780F2A29D1A84A927BFF2A25D1A64A22
:1033A000D378927803EB0222AA4B1A80A24A53796F
:1033B000127903EB0222A84B1A809F4AD3799279A3
:1033C00003EB0222A54B1A809B4A537A127A03EB35
:1033D0000222A34B1A80984AD37A927A03EB0222F4
:1033E000A04B1A800122A04B1A70602861D1924A2A
:1033F00052780F2A25D1904A927BFF2AFAD18E4A21
:1034000092788D4BDB7803EB022212B2974B1A8035
:10341000894A1279884B5B7903EB022212B2944BF2
:103420001A80854A9279844BDB7903EB022212B22F
:10343000904B1A808E4AB2F900208F4B1A808B4A2B
:1034400000E0F8E0B2F900208C4B1A80894AB2F90A
:1034500000208B4B1A80784A127A774B5B7A03EB09
:10346000022212B2874B1A80734A927A724BDB7A2D
:1034700003EB022212B2844B1A806F4A127B6E4B0E
:103480005B7B03EB022212B2804B1A807E4AB2F9B8
:1034900000207F4B1A807B4AB2F900207D4B1A80B6
:1034A0007A4AB2F900207C4B1A8001226E4B1A70C6
:1034B000C1E06128FCD1604A52782D2AF8D15E4AD9
:1034C00092F82C20FF2AF3D15B4AD378927803EB51
:1034D000022212B2714B1A80574A5379127903EBC8
:1034E000022212B26E4B1A80534AD379927903EBBF
:1034F000022212B26B4B1A804F4A537A127A03EBB4
:10350000022212B2684B1A804B4AD37A927A03EBAA
:10351000022212B2654B1A80474A537B127B03EB9F
:10352000022212B2624B1A80434AD37B927B03EB96
:10353000022212B25F4B1A803F4A537C127C03EB8B
:10354000022212B25C4B1A803B4AD37C927C03EB82
:10355000022212B2594B1A80374A537D127D03EB77
:10356000022212B2564B1A80334AD37D927D03EB6E
:10357000022212B2534B1A802F4A537E127E03EB63
:10358000022212B2504B1A802B4AD37E927E03EB5A
:10359000022212B24D4B1A80274A537F127F03EB4F
:1035A000022212B24A4B1A80234AD37F927F03EB46
:1035B000022212B2474B1A801F4A92F8213092F829
:1035C000202003EB022212B2434B1A801A4A92F8CF
:1035D000233092F8222003EB022212B23F4B1A80D2
:1035E000154A92F8253092F8242003EB022212B2F9
:1035F0003B4B1A80104A92F8273092F8262003EBB2
:10360000022212B2374B1A800B4A92F8293092F8F4
:10361000282003EB022212B2334B1A80064A92F89A
:103620002B3092F82A2003EB022212B22F4B1A8081
:1036300001220D4B1A707047271700201B02002033
:10364000070200200A0200202001002009020020B9
:10365000080200202C0100202E010020280100205B
:103660002A0100203001002023010020A2000020B8
:10367000A0000020A400002094000020960000205C
:1036800098000020A8000020A6000020AA0000202A
:103690009A0000209C0000209E0000203C0000209A
:1036A0004A00002058000020400000204E0000206A
:1036B0005C00002046000020540000206200002032
:1036C0003E0000204C0000205A0000204400002052
:1036D0005200002060000020420000205000002026
:1036E0005E000020480000205600002064000020FA
:1036F00070B52DED0A8B0446604890F8D902012878
:1037000001DB012500E000252CB1E07A00F050003B
:10371000502800D115B9BDEC0A8B70BD94ED0C2B6F
:10372000B0EE420AF0EE620A94ED0C2BB0EE421AB3
:10373000F0EE621A53EC102B51EC110BFDF7CAF9A5
:1037400041EC1B0B94ED0A2BB0EE420AF0EE620A3C
:1037500094ED0A2BB0EE421AF0EE621A53EC102BE5
:1037600051EC110BFDF7B6F941EC1C0B53EC1B2B84
:10377000FDF709F941EC1A0BB0EE4A0AF0EE6A0ABD
:1037800018F0FEFFB0EE409AF0EE609A9FED3C0B11
:1037900053EC102B51EC190BFDF7FEFA00D2BAE7EF
:1037A00094ED0C2BB0EE421AF0EE621A94ED0A2B57
:1037B000B0EE420AF0EE620A18F0FAFDB0EE408A6E
:1037C000F0EE608A9FED300B53EC102B51EC180B90
:1037D000FDF780F941EC1B0B9FED2D0B53EC102BEB
:1037E000FDF7F2FA08D29FED280B53EC102B51ECA9
:1037F000180BFDF76FF90BE09FED230B53EC102B2B
:1038000051EC180BFDF766F941EC1B0B81F0004100
:1038100041EC1A0B9FED200B53EC102BFDF7BCFA7B
:103820002AD894ED0C2BB0EE421AF0EE621A94ED09
:103830000A2BB0EE420AF0EE620A18F0B9FD0F480A
:1038400080ED1A0B00F18001683001F0A5F90B49F9
:10385000C031A1F1400014F081FE9FED110B53EC3B
:10386000102B51EC190BFDF7AFFA05D20348806914
:1038700040F008000149886100BF4CE73025002076
:103880000000000000001440F8C1631ADCA54C40A1
:1038900000000000000000000000000000807640F2
:1038A0000000000000001840024600207F2A08DDCA
:1038B00001EB022318B2431E18B2C043001140426C
:1038C00003E001EB022318B20011704708B501EEC6
:1038D000900AF8EEE11AB7EE002AC1EE822ACDED89
:1038E000002A01EE901AF8EEE11AF0EE610A01EEFC
:1038F000902AF8EEE11A9FED0B2AC1EE822AB0EE73
:10390000621A01EE900AF8EEE11A71EEE01A61EE29
:10391000811AB0EE610A1BB1F1EE401AB0EE610AF5
:1039200008BD00000000FA4504EE900AF8EEE44AF3
:10393000F0EE640A354AB2F9002004EE902AF8EE5F
:10394000E44AB0EE641A324AB2F9002004EE902A3A
:10395000F8EEE44AF0EE641A2E4AB2F9002004EEC2
:10396000902AF8EEE44AF0EE642A2B4AB2F90020DD
:1039700004EE902AF8EEE44AF0EE643A274AB2F9EF
:10398000002004EE902AF8EEE44AB0EE642A244ABD
:10399000B2F9002004EE902AF8EEE44AB0EE643A60
:1039A000204AB2F9002004EE902AF8EEE44AB0EE84
:1039B000644A70EEC14AF5EEC04AF1EE10FA12DD2B
:1039C000F4EEE10AF1EE10FA04D270EEC14A84EE90
:1039D000A20A1AE030EEE15AC5EE234A9FED125AD0
:1039E00034EE850A11E0F4EEC20AF1EE10FA04DDBD
:1039F00070EEC14A84EE830A07E030EEC25AC5EE8B
:103A0000044A9FED095A34EEC50A70473C00002075
:103A10003E00002040000020420000204400002022
:103A200046000020480000206F81843E70B52DEDD7
:103A3000068B04460D46B4F57A7F02DD4FF47A74A6
:103A400003E014F57A7F00DA144C00EE104AB8EE69
:103A5000C00ADFED130A80EE201A11EE106A30461C
:103A6000FDF787F941EC1A0BB0EE4A0AF0EE6A0A4C
:103A700018F082F9B0EE409AF0EE609A51EC190B12
:103A8000FDF7BAF908EE100A1DB1B1EE480AB0EE22
:103A9000408AB0EE480ABDEC068B70BD18FCFFFFF3
:103AA00000007A4404EE900AF8EEE44AF0EE640A6C
:103AB000354AB2F9002004EE902AF8EEE44AB0EE5E
:103AC000641A324AB2F9002004EE902AF8EEE44A71
:103AD000F0EE641A2E4AB2F9002004EE902AF8EEB5
:103AE000E44AF0EE642A2B4AB2F9002004EE902A50
:103AF000F8EEE44AF0EE643A274AB2F9002004EE08
:103B0000902AF8EEE44AB0EE642A244AB2F9002082
:103B100004EE902AF8EEE44AB0EE643A204AB2F994
:103B2000002004EE902AF8EEE44AB0EE644A70EE0B
:103B3000C14AF5EEC04AF1EE10FA12DDF4EEE10AE8
:103B4000F1EE10FA04D270EEC14A84EEA20A1AE035
:103B500030EEE15AC5EE234A9FED125A34EE850A43
:103B600011E0F4EEC20AF1EE10FA04DD70EEC14A83
:103B700084EE830A07E030EEC25AC5EE044A9FED98
:103B8000095A34EEC50A70474A0000204C00002054
:103B90004E00002050000020520000205400002061
:103BA000560000206F81843E2DE9F0412DED068BFB
:103BB00004460D461646B4F57A7F02DB4FF47A745C
:103BC00003E014F57A7F00DC254CB5F57A7F02DB43
:103BD0004FF47A7503E015F57A7F00DC204D00EE96
:103BE000105AB8EEC00ADFED1F0A80EE201A11EE5F
:103BF000107A3846FDF7BDF841EC190B00EE104A7B
:103C0000B8EEC00ADFED170A80EE201A11EE107A26
:103C10003846FDF7AEF841EC1A0BB0EE491AF0EE5B
:103C2000691AB0EE4A0AF0EE6A0A18F0C1FBB0EE6B
:103C3000408AF0EE608A51EC180BFDF7DDF80A4976
:103C4000086036B1084690ED000AB1EE400A80EDFA
:103C5000000A054890ED000ABDEC068BBDE8F08136
:103C600018FCFFFF00007A44D801002002EE900A01
:103C7000F8EEE22AF0EE620A184AB2F9002002EEEB
:103C8000902AF8EEE22AB0EE621A154AB2F9002044
:103C900002EE902AF8EEE22AF0EE621A114AB2F928
:103CA000002002EE902AF8EEE22AB0EE622A70EED0
:103CB000C12AF5EEC02AF1EE10FA04DD70EEC12A39
:103CC00082EEA10A03E070EEC12A82EE820A19B1E7
:103CD000F1EE402AB0EE620A704700005800002062
:103CE0005C0000206200002000B53C4800780128FC
:103CF0001BD13B4A11785078FFF7D6FD404200B205
:103D000038490880364A9178D078FFF7CDFD404297
:103D100000B235490880324A11795079FFF7C4FD65
:103D2000404200B23149088056E02C480078022811
:103D30001AD12B4A11785078FFF7B6FD404200B2F5
:103D400029490880264A9178D078FFF7ADFD00B266
:103D500024490880224A11795079FFF7A5FD404295
:103D600000B22249088037E01C48007803281AD1A5
:103D70001B4A11785078FFF797FD404200B21A496C
:103D80000880174A9178D078FFF78EFD404200B244
:103D900014490880124A11795079FFF785FD00B265
:103DA0001249088018E00E4A11785078FFF77CFD20
:103DB00000B20D4908800A4A9178D078FFF774FD67
:103DC000404200B209490880054A11795079FFF74D
:103DD0006BFD00B20349088000BD0000C200002056
:103DE0003000002038000020360000203A0000207B
:103DF0003B48007801281BD13A480178407801EB14
:103E00000020404200B23849088036488178C078A6
:103E100001EB0020404200B234490880314801796A
:103E2000407901EB0020404200B23149088056E061
:103E30002B48007802281AD12A480178407801EBF3
:103E40000020404200B22949088026488178C07885
:103E500001EB002000B22449088022480179407912
:103E600001EB0020404200B22149088037E01C48A5
:103E7000007803281AD11B480178407801EB002014
:103E8000404200B21949088016488178C07801EB99
:103E90000020404200B2144908801248017940795C
:103EA00001EB002000B21249088018E00D480178AB
:103EB000407801EB002000B20C4908800948817865
:103EC000C07801EB0020404200B209490880054853
:103ED0000179407901EB002000B203490880704766
:103EE000C200002088000020900000208E000020EA
:103EF0009200002010B54FF02051084800F026F93C
:103F000050B14FF02051054800F00AF80021034855
:103F100000F020F800F0D6F810BD0000B8640240B0
:103F20000246094B9A4201D2084801E0064810387F
:103F300001F000531BB1064B0B40C36002E0044B81
:103F40000B40836070470000106402400060024034
:103F50007D0F7D0F21B1026842F00102026003E093
:103F6000026822F00102026070470000016821F03F
:103F7000010101600021016041608160C160016157
:103F8000212141614A49884204D13D21484A103AE1
:103F900091608CE046491831884205D14FF4746134
:103FA000434A103A916082E041493031884205D15C
:103FB0004FF474113E4A103A916078E03C49483120
:103FC000884205D14FF07461394A103A91606EE031
:103FD00037496031884204D13649354A103AD160B8
:103FE00065E033497831884204D13349304A103A88
:103FF000D1605CE02E499031884204D12F492C4A8F
:10400000103AD16053E02A49A831884205D14FF0D7
:104010003D51274A103AD16049E02949884204D1EC
:104020003D21274A083A116041E02549183188426C
:1040300005D14FF47461224A083A116037E02049F3
:104040003031884205D14FF474111D4A083A11608D
:104050002DE01B494831884205D14FF07461184A60
:10406000083A116023E016496031884204D11149B1
:10407000134A121F11601AE011497831884204D1A5
:104080000D490F4A121F116011E00D49903188420D
:1040900004D10A490A4A121F116008E00849A831F0
:1040A000884204D14FF03D51054A121F11607047FC
:1040B000106002403D000020400F002000003D2025
:1040C0001064024014480078012808D11349087090
:1040D00013480078F0B10120124908701AE00E4828
:1040E0000078022803D101200F49087012E00A4825
:1040F0000078032803D101200C4908700AE0064823
:104100000078042803D101200949087002E0012049
:1041100008490870704700000901002004010020D0
:104120001E010020080100200301002005010020DD
:104130000601002007010020014600200A6802F065
:1041400001020AB1012000E00020704730B50346AB
:104150000A46002000240B4DAB4201D20A4901E07F
:104160000849103902F000550DB14C6800E00C68A8
:10417000064D2C4004EA02050DB1012000E00020AC
:1041800030BD000010640240006002407D0F7D0FD2
:1041900010B501F080034BB122B1436943F08003B5
:1041A000436103E0436923F08003436180290BD01E
:1041B0002AB1036801F01E042343036004E003688E
:1041C00001F01E04A343036010BD000010B50022DF
:1041D0000268134B1A40CC680B6823434C69234395
:1041E0008C692343CC6923430C6A23434C6A2343E1
:1041F0008C6A23434C6B23438C6B23431A4302602A
:10420000426922F00702D1E90B3423431A43426189
:104210000B6943604B6883608B68C36010BD00000E
:104220003F801CF010B5034600210022012000BF92
:1042300010E05A5C4AB1302A01DB392A01DD2E2A0E
:1042400001D1012004E0002006E001B9002003E0D4
:104250004C1CE1B21929ECDB00BF10BD10B50020E9
:10426000064908600649086040210648FCF765FBDE
:104270004FF42C710448FCF760FB10BD4401002092
:1042800048010020E01700202018002000B514226B
:104290000349044815F062F810F0E8FE00BD000084
:1042A0007C1700200000020810B50E480078C0B14D
:1042B0000D480078A8B100200A4908700A49087022
:1042C00001200A49087010F035FF10F0F1FA1422AD
:1042D0000749084815F056F810F084FA0020034901
:1042E000087010BD230100202201002021010020C0
:1042F000AE170020000002080220294908700120A2
:1043000028490870022028490870002027490870B1
:104310000120274908700020264908700A202649F4
:104320000870264908704FF4E130254908600020E4
:1043300024490870244908702449087024490870E9
:104340009FED240A244880ED000A90ED000ADFED7D
:10435000230A80EE801A224880ED001A00202149AD
:104360000870214908701A490870204908702049CE
:104370000870204908702049088020490880204999
:1043800008602049086020490860204908602049E9
:10439000087020490870204908702049087070474B
:1043A000C20000201E0100201D0100201F0100206E
:1043B000E7000020E6000020C4000020C500002027
:1043C0002C00002011000020EF000020D20000206F
:1043D000D3000020DA0F49403801002000003443A8
:1043E000340100202301002021010020C60000200C
:1043F000C8000020C7000020D4000020D600002004
:1044000048010020440100204C0100205001002000
:104410000401002005010020030100200901002003
:104420000A48007888B10A48006870B109480068F5
:1044300058B1002005490870054908600549086021
:10444000012005490860054908607047C300002045
:104450004C010020500100204401002048010020B0
:104460002DE9F0412DED088B06460027FE48006837
:10447000401CFD49086008460068082802DC084620
:10448000006800E00820F849086000256CE200247C
:1044900066E2F5480068FCF7FEFB41EC1B0BF348B5
:1044A00000EBC40090ED001BB0EE410AF0EE610A93
:1044B00053EC1B2B51EC100BFCF77EFB41EC1A0B61
:1044C000EA4800EBC40090ED001BB0EE410AF0EEAC
:1044D000610A53EC102B51EC1A0BFCF7F8FAE34A83
:1044E00002EBC40203C2E0480068FCF7D4FB41ECD5
:1044F0001B0B05EB450106F1100000EBC10000EBC2
:10450000C40090ED001BB0EE410AF0EE610A53ECDE
:104510001B2B51EC100BFCF74FFB41EC1A0BD34853
:1045200000EBC40090ED001BB0EE410AF0EE610A12
:1045300053EC102B51EC1A0BFCF725FACB4A02EB8B
:10454000C40203C2C8480068FCF7A5FB41EC1B0B82
:10455000C74800EBC40090ED001BB0EE410AF0EE3E
:10456000610A53EC1B2B51EC100BFCF725FB41ECC3
:104570001A0BBF4800EBC40090ED001BB0EE410ADF
:10458000F0EE610A53EC102B51EC1A0BFCF79FFA7A
:10459000B74A02EBC40203C2B3480068FCF77BFBD6
:1045A00041EC1B0B05EB450106F1280000EBC100B7
:1045B00000EBC40090ED001BB0EE410AF0EE610A82
:1045C00053EC1B2B51EC100BFCF7F6FA41EC1A0BD9
:1045D000A74800EBC40090ED001BB0EE410AF0EEDE
:1045E000610A53EC102B51EC1A0BFCF7CCF9A04AE2
:1045F00002EBC40203C205EB450106F1100000EB1B
:10460000C10000EBC40090ED002BB0EE421AF0EEBA
:10461000621A964800EBC40090ED002BB0EE420AFF
:10462000F0EE620A53EC102B51EC110BFCF74CFA34
:1046300041EC1A0B9FED8F0B53EC102BFCF7C4FBD6
:104640001DD205EB450106F1100000EBC10000EBA7
:10465000C40090ED002BB0EE421AF0EE621A8348CF
:1046600000EBC40090ED002BB0EE420AF0EE620ABF
:1046700053EC102B51EC110BFCF726FA20E005EB64
:10468000450106F1100000EBC10000EBC40090ED05
:10469000002BB0EE421AF0EE621A744800EBC40030
:1046A00090ED002BB0EE420AF0EE620A53EC102BB4
:1046B00051EC110BFCF708FA41EC1A0B81F00041A8
:1046C00041EC180B05EB450106F1280000EBC10099
:1046D00000EBC40090ED002BB0EE421AF0EE621A2F
:1046E000634800EBC40090ED002BB0EE420AF0EE00
:1046F000620A53EC102B51EC110BFCF7E5F941EC7D
:104700001A0B9FED5C0B53EC102BFCF75DFB1DD2DD
:1047100005EB450106F1280000EBC10000EBC400E9
:1047200090ED002BB0EE421AF0EE621A504800EB0A
:10473000C40090ED002BB0EE420AF0EE620A53EC9A
:10474000102B51EC110BFCF7BFF920E005EB4501F4
:1047500006F1280000EBC10000EBC40090ED002B37
:10476000B0EE421AF0EE621A414800EBC40090ED40
:10477000002BB0EE420AF0EE620A53EC102B51EC23
:10478000110BFCF7A1F941EC1A0B81F0004141EC4F
:10479000190B35480068FCF77EFA41EC1B0B3748D3
:1047A00000EBC40090ED001BB0EE410AF0EE610A90
:1047B00053EC1B2B51EC100BFCF7FEF941EC1A0BE0
:1047C0002E4800EBC40090ED001BB0EE410AF0EE65
:1047D000610A53EC102B51EC1A0BFCF778F9274ABD
:1047E00002EBC40203C220480068FCF754FA41EC13
:1047F0001B0B53EC1B2B51EC180BFCF7DDF941ECB8
:104800001A0B1E4800EBC40090ED001BB0EE410AED
:10481000F0EE610A53EC102B51EC1A0BFCF7B3F8D5
:10482000164A02EBC40203C20F480068FCF733FAD1
:1048300041EC1B0B124800EBC40090ED001BB0EEE6
:10484000410AF0EE610A53EC1B2B51EC100BFCF704
:10485000B3F941EC1A0B0A4800EBC40090ED001BC1
:10486000B0EE410A0EE00000BC030020C828002082
:10487000E02800200000000000000000F8280020D0
:1048800010290020F0EE610A53EC102B51EC1A0BAA
:10489000FCF71DF9454A02EBC40203C24448006814
:1048A000FCF7F9F941EC1B0B53EC1B2B51EC190BEA
:1048B000FCF782F941EC1A0B3C4800EBC40090ED88
:1048C000001BB0EE410AF0EE610A53EC102B51ECE4
:1048D0001A0BFCF758F8354A02EBC40203C23548FC
:1048E00000EBC40090ED002BB0EE420AF0EE620A3D
:1048F000314800EBC40090ED002BB0EE421AF0EE10
:10490000621A53EC102B51EC110BFCF75DFA01D23B
:10491000012000E00020A0403843C7B22549E01C38
:1049200001EBC00090ED002BB0EE420AF0EE620AFF
:104930001E4800EBC40090ED002BB0EE421AF0EEE2
:10494000621A53EC102B51EC110BFCF73DFA01D21B
:10495000012000E00020E11C88403843C7B2641CFD
:10496000032CFFF696AD6D1C012DFFF690AD10489F
:10497000006804280ADD1FB100201049086208E021
:104980000E48006A401C0D49086202E000200B49F5
:1049900008620A48006AB0F1807F03D36FF07F405D
:1049A00006490862BDEC088BBDE8F08110290020A3
:1049B000BC03002070D40108F82800203025002016
:1049C00070B52DED088B0446002C4ED0E07A00F037
:1049D0000300032849D16B4800780A2846DA94ED91
:1049E0000C2BB0EE420AF0EE620A94ED0C2BB0EE06
:1049F000421AF0EE621A53EC102B51EC110BFCF73B
:104A000069F841EC1A0B94ED0A2BB0EE420AF0EE75
:104A1000620A94ED0A2BB0EE421AF0EE621A53ECE1
:104A2000102B51EC110BFCF755F841EC1B0B53EC20
:104A30001A2BFBF7A8FF41EC190BB0EE490AF0EE78
:104A4000690A17F09DFEB0EE408AF0EE608A51ECE4
:104A5000180BFCF7D1F94C494A4A127841F8220068
:104A600048480078401C4749087087E001250CE061
:104A7000454800EB850090ED000A681E424901EBB5
:104A8000800080ED000A681CC5B20A2DF0DB94F8A6
:104A90004600052847DB94F84500012843DB3B48E6
:104AA00090F8D90200283EDD94ED0C2BB0EE420ABE
:104AB000F0EE620A94ED0C2BB0EE421AF0EE621AA0
:104AC00053EC102B51EC110BFCF704F841EC1A0BD2
:104AD00094ED0A2BB0EE420AF0EE620A94ED0A2B36
:104AE000B0EE421AF0EE621A53EC102B51EC110B9F
:104AF000FBF7F0FF41EC1B0B53EC1A2BFBF743FFCA
:104B000041EC190BB0EE490AF0EE690A17F038FED5
:104B1000B0EE408AF0EE608A51EC180BFCF76CF9AD
:104B20001949486204E0B2EE040A174880ED090A08
:104B3000002017490870012512E0134800EB85009A
:104B400090ED000ADFED130AB4EEE00AF1EE10FA80
:104B500004D20F480078401C0D490870681CC5B28B
:104B60000A2DEADB0A480078082807DB6420074999
:104B70000862182105485030FBF7DFFEBDEC088BBA
:104B800070BD000030030020B81C0020302500203C
:104B900031030020CDCC4C3E30B52DED108B83B0D1
:104BA00004460D4694ED001BB0EE410AF0EE610A9A
:104BB0009FED981B53EC112B51EC100BFBF7FCFFF6
:104BC00041EC1E0BB0EE4E0AF0EE6E0A17F004FD3B
:104BD000B0EE408AF0EE608A94ED021BB0EE410A1E
:104BE000F0EE610A9FED8B1B53EC112B51EC100B77
:104BF000FBF7E2FF41EC1E0BB0EE4E0AF0EE6E0A40
:104C000017F0EAFCB0EE40AAF0EE60AA94ED041BA7
:104C1000B0EE410AF0EE610A9FED7E1B53EC112BC2
:104C200051EC100BFBF7C8FF41EC1E0BB0EE4E0A27
:104C3000F0EE6E0A17F0D0FCB0EE40CAF0EE60CA9B
:104C400094ED001BB0EE410AF0EE610A9FED711B7E
:104C500053EC112B51EC100BFBF7AEFF41EC1E0B8C
:104C6000B0EE4E0AF0EE6E0A17F026FDB0EE409A56
:104C7000F0EE609A94ED021BB0EE410AF0EE610A8C
:104C80009FED641B53EC112B51EC100BFBF794FFC1
:104C900041EC1E0BB0EE4E0AF0EE6E0A17F00CFD62
:104CA000B0EE40BAF0EE60BA94ED041BB0EE410AEB
:104CB000F0EE610A9FED571B53EC112B51EC100BDA
:104CC000FBF77AFF41EC1E0BB0EE4E0AF0EE6E0AD7
:104CD00017F0F2FCB0EE40DAF0EE60DA53EC1B2B8A
:104CE00051EC1D0BFBF7F6FE41EC1F0B53EC192B9F
:104CF000FBF7F0FE41EC1E0B53EC1A2B51EC1C0B96
:104D0000FBF7E8FE41EC1F0B53EC182BFBF7E2FE20
:104D100053EC1E2BCDE900019DED000B51EC100B67
:104D2000FBF731FEC5E9000153EC1B2B51EC1C0BCA
:104D3000FBF7D0FE41EC1F0B53EC192BFBF7CAFE1F
:104D400041EC1E0B53EC1A2B51EC1D0BFBF7C2FE72
:104D500041EC1F0B53EC182BFBF7BCFE53EC1E2B46
:104D6000CDE900019DED000B51EC100BFBF7ACFE03
:104D7000C5E9020153EC1A2B51EC1D0BFBF7AAFEFF
:104D800041EC1F0B53EC192BFBF7A4FE41EC1E0B5F
:104D900053EC1B2B51EC1C0BFBF79CFE41EC1F0B47
:104DA00053EC182BFBF796FE53EC1E2BCDE90001BC
:104DB0009DED000B51EC100BFBF7E5FDC5E904017F
:104DC00053EC1B2B51EC1D0BFBF784FE41EC1F0B2E
:104DD00053EC182BFBF77EFE41EC1E0B53EC1A2B09
:104DE00051EC1C0BFBF776FE41EC1F0B53EC192B1F
:104DF000FBF770FE53EC1E2BCDE900019DED000B7F
:104E000051EC100BFBF760FEC5E9060103B0BDECE9
:104E1000108B30BD000000000000004070B52DED8B
:104E20000C8B04463C259F48C06A9E4991F80113AB
:104E3000C1EB0111B0EB810F7ED99A4890F8D902ED
:104E400001280CDB974890F8A80240B1954890F8EB
:104E5000300320B1934890F8AE0201280BD1002016
:104E600091490880914908700120914908700020FB
:104E70009049087002E001208C4908708B48007846
:104E8000002859D0874890F801036843864909886B
:104E900088427DDD84480088401C8349088085481D
:104EA000007800287BD00020824908707D4890ED72
:104EB0001E1BB0EE410AF0EE610A9FED7F1B53EC22
:104EC000112B51EC100BFBF705FE41EC1C0B7C4841
:104ED0000068FBF74EFF41EC1D0B53EC1C2BFBF75E
:104EE000F3FD41EC1B0B9FED770B53EC102BFBF705
:104EF00063FE41EC190B6B4890EDC20A10EE101ADC
:104F00000846FBF736FF41EC1A0B53EC192BFBF765
:104F10003AFD41EC180BFBF76FFF6249C1F808033B
:104F2000084690ED1C1BB0EE410AF0EE610A9FEDC1
:104F3000621B53EC112B00E0ABE051EC100BFBF7C4
:104F4000C9FD41EC1C0B61480068FBF712FF41EC06
:104F50001D0B53EC1C2BFBF7B7FD41EC1B0B9FED1E
:104F6000590B53EC102BFBF727FE41EC190B4D4866
:104F700090EDC30A10EE101A0846FBF7FAFE41EC5A
:104F80001A0B53EC192BFBF7FEFC41EC180B01E05C
:104F900077E004E0FBF730FF4249C1F80C034448D6
:104FA000007868B30020424908703E4890ED1C1B11
:104FB000B0EE410AF0EE610A9FED3F1B53EC112B5E
:104FC00051EC100BFBF786FD41EC180BFBF714FFBF
:104FD0003E490860334890ED1E1BB0EE410AF0EEEA
:104FE000610A9FED351B53EC112B51EC100BFBF7B5
:104FF00071FD41EC180BFBF7FFFE3149086048E0FA
:1050000094ED061BB0EE410AF0EE610A9FED2A1BFB
:1050100053EC112B51EC100BFBF75CFD41EC190B21
:105020002A480068FBF7A5FE41EC1A0B53EC192B3C
:10503000FBF7A9FC41EC180BFBF7DEFE23490860E7
:1050400094ED041BB0EE410AF0EE610A9FED1A1BCD
:1050500053EC112B51EC100BFBF73CFD41EC190B01
:1050600017480068FBF785FE41EC1A0B53EC192B2F
:10507000FBF789FC41EC180BFBF7BEFE10490860FA
:1050800007E0002008490880012009490870094903
:1050900008700E4890ED000A024880EDC10ABDEC90
:1050A0000C8B70BD30250020260300202403002037
:1050B0002203002023030020F8C1631ADCA54C4022
:1050C0002C0300200000000000004E4028030020B8
:1050D00030B10749096841F48061054A116005E073
:1050E0000349096821F48061014A1160704700009A
:1050F000003C024070B504460A460026092502B964
:1051000009E0012A01D1160205E0022A01D11602A6
:1051100001E04FF4407600F09FF80546092D28D1B4
:105120001548006820F4407013490860084600687C
:10513000304308600846006820F0F8000860084620
:10514000006844F0020108430B4908600846006803
:1051500040F48030086000F07FF80546064800689B
:1051600020F00200044908600846006820F0F800BA
:105170000860284670BD0000103C02400920134919
:10518000096801F48031B1F5803F01D101201CE0B4
:105190000E49096801F0100109B1062015E00B491C
:1051A000096801F4807109B102200EE0074909681D
:1051B00001F0EF0109B1072007E00449096801F097
:1051C000020109B1082000E0092070470C3C0240B0
:1051D0000348006840F00040014908607047000043
:1051E000103C024030B502460C46092500F034F868
:1051F0000546092D19D10E48006820F440700C496D
:1052000008600846006840F40070086008460068BE
:1052100040F001000860146000F01EF805460448E4
:10522000006820F0010002490860284630BD0000F7
:10523000103C02400548006800F0004028B10448D6
:1052400002490C390860034808607047103C02406E
:1052500023016745AB89EFCD08B509200090FFF722
:105260008DFF009002E0FFF789FF00909DF800009D
:105270000128F8D09DF8000008BD00002DE9FF4F7F
:105280002DED048BADF6AC4D83460F469946DDF807
:10529000F0AC4FF434710DF6D810FBF74EFB4FF421
:1052A00034710DF5E160FBF748FB002488E0002530
:1052B00082E09FEDFE0B04FB07500DF6D81101EBC9
:1052C000C00080ED000B002673E0A64238D8C5EB85
:1052D0000510304409EBC00090ED002BB0EE420AFF
:1052E000F0EE620AF348005D8119F34800EBC1005B
:1052F00090ED002BB0EE421AF0EE621A53EC102B38
:1053000051EC110BFBF7E6FB41EC180B04FB0750CB
:105310000DF6D81101EBC00090ED001BB0EE410A74
:10532000F0EE610A53EC102B51EC180BFBF72BFB42
:1053300004FB07520DF6D81303EBC20203C237E099
:10534000C5EB0510304409EBC00090ED002BB0EE2A
:10535000420AF0EE620AD748805D0119D64800EB98
:10536000C10090ED002BB0EE421AF0EE621A53EC41
:10537000102B51EC110BFBF7ADFB41EC180B04FBB0
:1053800007500DF6D81101EBC00090ED001BB0EEF8
:10539000410AF0EE610A53EC102B51EC180BFBF7AD
:1053A000F2FA04FB07520DF6D81303EBC20203C254
:1053B000761C0F2E89D36D1CBD42FFF47AAF641C9E
:1053C0000F2CFFF474AFE846002447E0B948055DB0
:1053D0003EE09FEDB60B08EBC50080ED000B00260C
:1053E00033E006FB0750B349095D401A0DF6D811AA
:1053F00001EBC00090ED002BB0EE420AF0EE620A25
:10540000C4EB0410304409EBC00090ED002BB0EE6B
:10541000421AF0EE621A53EC102B51EC110BFBF711
:1054200059FB41EC180B08EBC50090ED001BB0EEEA
:10543000410AF0EE610A53EC102B51EC180BFBF70C
:10544000A2FA08EBC50203C2761C0F2EC9D36D1C4D
:105450009849601C085CA842BBD8641CBC42B5D308
:10546000002421E00AEBC40090ED002BB0EE420ACC
:10547000F0EE620A8F49601C085C401E08EBC00019
:1054800090ED002BB0EE421AF0EE621A53EC102BA6
:1054900051EC110BFBF777FA864B621C9A5C521E9B
:1054A00008EBC20203C2641CBC42DBD3394640464F
:1054B00015F014FE00248DE0002587E09FED7B0BA6
:1054C00004FB07500DF5E16101EBC00080ED000B1E
:1054D000002678E00120A04000EA0B00C8B3B542E6
:1054E00038D87448805D284408EBC00090ED002B4C
:1054F000B0EE420AF0EE620A04FB07600DF6D81126
:1055000001EBC00090ED002BB0EE421AF0EE621AF3
:1055100053EC102B51EC110BFBF7DCFA41EC180BA0
:1055200004FB07500DF5E16101EBC00090ED001B9D
:10553000B0EE410AF0EE610A53EC102B51EC180B5F
:10554000FBF721FA04FB07520DF5E16303EBC202FE
:1055500003C237E05748405D304408EBC00090ED8F
:10556000002BB0EE420AF0EE620A04FB07600DF673
:10557000D81101EBC00090ED002BB0EE421AF0EE16
:10558000621A53EC102B51EC110BFBF7A3FA41EC10
:10559000180B04FB07500DF5E16101EBC00090ED25
:1055A000001BB0EE410AF0EE610A53EC102B51ECF7
:1055B000180BFBF7E8F904FB07520DF5E16303EB69
:1055C000C20203C2761CBE4284D36D1CBD42FFF4EE
:1055D00075AF641C0F2CFFF46FAF78213648F0389C
:1055E000FBF7ABF9002438E0002533E0DDF8C40C0C
:1055F00000EBC50090ED002BB0EE420AF0EE620A1F
:1056000004FB07500DF5E16101EBC00090ED002BAC
:10561000B0EE421AF0EE621A53EC102B51EC110B63
:10562000FBF758FA41EC180B2348F03800EBC400A4
:1056300090ED001BB0EE410AF0EE610A53EC102B26
:1056400051EC180BFBF79FF91B4AF03A02EBC4022E
:1056500003C26D1CBD42C9D3641C0F2CC4D30024EB
:1056600070E000256BE0A54210D81248005D41199A
:10567000114800EBC10090ED000BC4EB041028446E
:10568000694601EBC00080ED000B19E00948405D60
:105690000119094800EBC10090ED000BC4EB0410A8
:1056A0002844694601EBC00008E00000000000004B
:1056B000000000005AD40108301E002080ED000BCD
:1056C000002639E005FB07600DF6D81101EBC0009C
:1056D00090ED002BB0EE420AF0EE620A04FB076088
:1056E0000DF5E16101EBC00090ED002BB0EE421A28
:1056F000F0EE621A53EC102B51EC110BFBF7EAF9A8
:1057000041EC180BC4EB04102844694601EBC000BF
:1057100090ED001BB0EE410AF0EE610A53EC102B45
:1057200051EC180BFBF7D3F9C4EB04122A446B4677
:1057300003EBC20203C2761CBE42C3D36D1C0F2D05
:1057400091D3641C0F2C8CD300244CE0002547E03F
:105750001FED2A0B04FB07500DF6D81101EBC0001A
:1057600080ED000B002638E0C5EB0510304409EB56
:10577000C00090ED002BB0EE420AF0EE620AC4EBDE
:1057800004103044694601EBC00090ED002BB0EEF0
:10579000421AF0EE621A53EC102B51EC110BFBF78E
:1057A00099F941EC180B04FB07500DF6D81101EBE9
:1057B000C00090ED001BB0EE410AF0EE610A53EC20
:1057C000102B51EC180BFBF7DEF804FB07520DF61B
:1057D000D81303EBC20203C2761C0F2EC4D36D1C78
:1057E000BD42B5D3641C0F2CB0D3002454E05A48FA
:1057F000055D4BE0C4EB041028445749095D401A8D
:10580000694601EBC00090ED000B544800EBC50069
:1058100080ED000B002636E04F48005D281A00FBA3
:1058200007600DF5E16101EBC00090ED002BB0EEDB
:10583000420AF0EE620A04FB07600DF6D81101EB94
:10584000C00090ED002BB0EE421AF0EE621A53EC5D
:10585000102B51EC110BFBF73DF941EC180B3F48B5
:1058600000EBC50090ED001BB0EE410AF0EE610ABE
:1058700053EC102B51EC180BFBF729F9374A02EBCC
:10588000C50203C2761CBE42C6D36D1C3249601CE1
:10589000085CA842AED8641C0F2CA8D3002452E0A8
:1058A0002D48055D49E0002644E02B48005D281A9C
:1058B00000FB07600DF5E16101EBC00090ED002BEE
:1058C000B0EE420AF0EE620A04FB076001EBC00092
:1058D00090ED002BB0EE421AF0EE621A53EC102B52
:1058E00051EC110BFBF7F6F841EC190B0AEBC60073
:1058F00090ED001BB0EE410AF0EE610A53EC102B64
:1059000051EC190BFBF7E6F841EC180B134800EBD0
:10591000C50090ED001BB0EE410AF0EE610A53ECB9
:10592000102B51EC180BFBF72EF80C4A02EBC502BA
:1059300003C2761CBE42B8D36D1C0749601C085CCC
:10594000A842B0D8641C0F2CAAD30DF6AC4DBDEC08
:10595000048BBDE8FF8F00005AD40108301E0020E0
:1059600010B52DED0A8B86B004462046FBF7A4F94E
:1059700041EC1A0B9FEDFE0B53EC102BFBF71CF9BF
:1059800041EC180B9FEDFC0BFD4880ED100B80EDFA
:10599000080BB03880ED2C0BFA4890ED681BB0EE88
:1059A000410AF0EE610A53EC182B51EC100BFBF797
:1059B00091F8F34AC2E90201F24890ED661BB0EE9D
:1059C000410AF0EE610A51EC100B81F0004141EC0C
:1059D0001A0B53EC182BFBF77DF8E94AC2E90401D6
:1059E000E84890ED681BB0EE410AF0EE610A51EC18
:1059F000100B81F0004141EC1A0B53EC182BFBF714
:105A000069F8DF4AC2E90601DE4890ED641BB0EE9A
:105A1000410AF0EE610A53EC182B51EC100BFBF726
:105A200059F8D74AC2E90A01D64890ED661BB0EE94
:105A3000410AF0EE610A53EC182B51EC100BFBF706
:105A400049F8CF4AC2E90C01CE4890ED641BB0EE94
:105A5000410AF0EE610A51EC100B81F0004141EC7B
:105A60001A0B53EC182BFBF735F8C54AC2E90E01A7
:105A700002F1480080ED108B80ED088BF83880ED46
:105A80003E8BC04890ED5C2BB0EE420AF0EE620A0D
:105A900090ED5A2BB0EE421AF0EE621A53EC102B36
:105AA00051EC110BFBF716F841EC1A0BB0EE4A0A59
:105AB000F0EE6A0A16F064FEB0EE409AF0EE609ADC
:105AC000B04890ED121BB0EE410AF0EE610A53ECC3
:105AD000102B51EC190BFAF756FF41EC1B0BA948A0
