:020000040801F1
:1000000050E40020A9010108B1010108B301010871
:10001000B5010108B7010108B9010108000000009D
:10002000000000000000000000000000BB0101080B
:10003000BD01010800000000BF010108C101010865
:10004000C3010108C3010108C3010108C30101087C
:10005000C3010108C3010108394D0108C3010108AA
:10006000C3010108C3010108C3010108C30101085C
:10007000C3010108C3010108C3010108C30101084C
:10008000C3010108C3010108C30101080000000009
:10009000000000000000000000000000C301010893
:1000A000C3010108C3010108C3010108C30101081C
:1000B00005E20208D9E20208C3010108C3010108F0
:1000C000C3010108C3010108C3010108C3010108FC
:1000D000C3010108C1E50208F5E5020800000000BF
:1000E000794D0108C3010108C301010800000000A7
:1000F000000000000000000000000000C301010833
:1001000000000000C3010108C3010108C301010888
:1001100000000000000000000000000000000000DF
:10012000C3010108C3010108C3010108C30101089B
:10013000C3010108000000000000000000000000F2
:10014000000000000000000000000000C3010108E2
:10015000C3010108C3010108D140010831E60208CA
:10016000C3010108C30101080000000000000000F5
:10017000000000000000000000000000000000007F
:1001800000000000C30101080000000000000000A2
:10019000C3010108DFF80CD000F0E8FF0048004779
:1001A0003D00030850E40020064880470648004709
:1001B000FEE7FEE7FEE7FEE7FEE7FEE7FEE7FEE717
:1001C000FEE7FEE79DE10208950101087CB50823E2
:1001D0006A4673217A201FF01BFE05460DB12846A2
:1001E0007CBD002405E0201D1DF80000FE490855D7
:1001F000641C042CF7DB08236A4674217A201FF064
:1002000007FE05460DB12846EAE7042404E01DF880
:100210000400F5490855641C082CF8DB08236A46DD
:1002200075217A201FF0F4FD05460DB12846D7E769
:10023000002405E0201D1DF80000EC490855641C51
:10024000042CF7DB08236A4676217A201FF0E0FDB4
:1002500005460DB12846C3E7042404E01DF8040058
:10026000E2490855641C082CF8DB0020B8E71CB5EF
:10027000014600200AE0021D8A5CD243D2B20DF88A
:1002800000200B5C021D0DF80230401C0428F2DB3C
:10029000002003E01DF800200A54401C0828F9DB68
:1002A0001CBD3CB5024600200CE0135C0C5C6340B6
:1002B000041D0DF80430031DD35C0C5D63400DF884
:1002C0000030401C0428F0DB002003E01DF8003063
:1002D0001354401C0828F9DB3CBD0CB5014607202F
:1002E00004E0421E8A5C0DF80020401E0028F8DC65
:1002F000CA798DF80020002003E01DF800200A5480
:10030000401C0828F9DB0CBD0CB50146002004E0B8
:10031000421C8A5C0DF80020401C0728F8DB0A7894
:100320008DF80720002003E01DF800200A54401C2F
:100330000828F9DB0CBD2DE9FF4F83B082468846C3
:10034000DDE910B9002404E01AF8040008F80400FC
:10035000641C082CF8DB0025ADE0B9F1000F0BD1CF
:10036000002406E0A24800EBC500005D0DF8040083
:10037000641C082CF6DB10E000240CE09D4800EB28
:10038000C500005D9849095D48409849095D4840AD
:100390000DF80400641C082CF0DB002407E01DF8B5
:1003A00004000599095D48400DF80400641C022C06
:1003B000F5DB002409E0A01C1DF800008E49095D52
:1003C0004840A11C0DF80100641C022CF3DB00273F
:1003D0001FE09DF80000029000240CE01DF80400CE
:1003E000F82101EAC001601C1DF8000041EA50102C
:1003F0000DF80400641C072CF0DB9DF80700F821C1
:1004000001EAC001029841EA50108DF80700781CFB
:10041000C7B2ABF10100B842DBDC002745E09DF834
:100420000700029007240CE0601E1DF80000E02188
:1004300001EA40101DF8041040EAD1000DF8040054
:10044000641E002CF0DCE021029801EA40109DF8C7
:10045000001040EAD1008DF800009DF80000042152
:1004600001EAE0009DF8001040EA91161EB94046EE
:10047000FFF7FDFE17E0012E04D169464046FFF765
:1004800010FF10E0B9F1000F05D0032E03D1404654
:10049000FFF723FF07E0B9F1000F04D0042E02D1CB
:1004A0004046FFF731FF781CC7B2ABF10100B842FC
:1004B000B5DC681CC5B206988542FFF64EAF07B0A2
:1004C000BDE8F08F30B587B010234C4A30217A2038
:1004D0001FF09EFC054615B1284607B030BD00242C
:1004E0000DE0464810F8140003A90855012000EB60
:1004F00044004249095C03AA601C1154A41C082C46
:10050000EFDB3E48C07A8DF808003C4880788DF8D3
:10051000090000203849087001204870002020217F
:10052000022302AACDE9001005A903A8FFF703FFE3
:10053000002405E005A8005D314901F81400641CA1
:10054000082CF7DB2E48007880F0A8002C490870B2
:10055000002048703020C870A4204871AF20C871B6
:1005600044204872CB20C872832048730C20C87383
:1005700010230A4630217A201FF072FC05460DB187
:100580002846AAE72A201FF01BFC0020A5E77CB51F
:100590001648007880F014008DF800001348407869
:1005A00080F0D8008DF801001048807880F0360087
:1005B0008DF802000D48C07880F047008DF80300E8
:1005C0000A48007980F09A008DF8040007484079C5
:1005D00080F06A008DF805000448807980F02200E0
:1005E0008DF8060001480DE0FB0300200304002005
:1005F000D1030020E1030020F9030020402C00205B
:10060000302C0020C07980F008008DF80700984851
:100610004078801C96494870012405E01FF0D6FB05
:10062000944901F81400A41C082CF7DB002405E011
:100630001DF804008F4901F81400641C082CF7DB36
:1006400010238C4A40217A201FF00AFC05460DB188
:1006500028467CBD0020FCE72DE9F04F87B0064618
:1006600089464FF0E90B8448007800283FD10024E8
:1006700003E000207F490855641C102CF9DB082397
:100680007C4A80217A201FF0EBFB01201FF098FBB1
:100690000123784A20217A201FF0E2FB01201FF07D
:1006A0008FFB83207349087001230A4622217A2098
:1006B0001FF0D6FB01201FF083FBFFF703FF054669
:1006C0001DB1284607B0BDE8F08F01201FF078FB70
:1006D000FFF77CFD05460DB12846F3E7FFF757FF0E
:1006E00005460DB12846EDE7012063490870002753
:1006F000B9E017B9CDF80CB001E0872003900024D1
:100700000BE0305D5B4901F814001FF05FFB012135
:1007100001EB4401574A5054641C082CF1DB8FBB99
:100720001023564A7A2003991FF072FB05460DB13B
:100730002846C7E700240DE0504810F8140005A92A
:100740000855012000EB44004C49095C05AA601CD7
:100750001154A41C082CEFDB4848C07A8DF8100017
:10076000464880788DF811009DF81000C04341493B
:1007700008709DF8110088730846007830700846AC
:10078000807BF07110233B4A7A2003991FF068FBAD
:1007900005460DB1284695E705201FF011FB1023F3
:1007A000364A7A2003991FF033FB05460DB12846DF
:1007B00088E700240DE0314810F8140005A9085519
:1007C000012000EB44002D49095C05AA601C11546E
:1007D000A41C082CEFDB2948C07A8DF810002748AC
:1007E00080788DF8110022484078FF2807D12048F2
:1007F0000078401C1E4908700020487004E01C4826
:100800004078401C1A4948704FF0010A002417E054
:1008100002202021032304AACDE90010494605A89F
:10082000FFF789FD4FF0000806E019F8080005A958
:1008300001F8080008F10108B8F1080FF5DB641CA5
:100840005445E5DB002407E0305D19F804108842C8
:1008500001D0322502E0641C082CF5DB00BF0DB985
:1008600000202FE77F1C022FFFF643AF284629E721
:10087000F9030020302C0020D0030020402C002061
:100880002DE9F05F0546002092469B4688460646C5
:10089000814640241BE0284641464746224600F058
:1008A000D6FA53465A46C01A914110D311461846FB
:1008B000224600F0BDFA2D1A67EB01084F4622468A
:1008C0000120002100F0B4FA17EB00094E41201E70
:1008D000A4F10104DFDC484631462A464346BDE820
:1008E000F09F00000649074A0868504343F2390266
:1008F00010440860400870470149086070470000D4
:100900000C0400206D4EC64140EA01039B0703D052
:1009100009E008C9121F08C0042AFAD203E011F83E
:10092000013B00F8013B521EF9D27047D2B201E000
:1009300000F8012B491EFBD270470022F6E710B5E4
:1009400013460A4604461946FFF7F0FF204610BD3D
:1009500010B5002200E0521C835C8C5CA34201D1E4
:10096000002BF8D1D8B2E1B2401A10BD70B50646DE
:100970001EF0A4F8046805460A220021304600F063
:10098000D7FA2C6070BD2DE9FE4F804681EA030046
:10099000C00F0C46009021F0004123F00045B8EB59
:1009A0000200A94105D24046214690461C460B460E
:1009B000024623F00040104347D0270DC7F30A003A
:1009C000C3F30A510290401A019040286BDAC3F336
:1009D000130040F4801B0098924620B10023D2EB14
:1009E000030A63EB0B0B01985946C0F140025046D5
:1009F00000F01EFA06460D4650465946019A00F090
:100A000036FA10EB08006141002487EA115284EAAB
:100A1000E7731A4340D0009A62B3019A012A4FEA61
:100A2000075215DC001B61EB02014FF0004202EAA5
:100A30000752CDE90042001C41F5801132462B4699
:100A400000F0F4FA03B0BDE8F08F40462146F9E724
:100A5000001B61EB0201001C41F5801300185B4193
:100A60002018A2F5001747EB030140EAD570B6192C
:100A70006D4111E06D084FEA360645EAC0754FEA50
:100A80000752001B61EB0201001C41F5801149086F
:100A90004FEA30000019514132462B4603B0BDE801
:100AA000F04F00F0B4BA0098012240000023D0EBD0
:100AB000020263EBE073009821464FEAE074B8EB62
:100AC000000061EB0401E9E783F000435BE781F09C
:100AD000004158E72DE9FE4F81EA030404F0004489
:100AE00021F0004100944FF0000B23F0004350EA46
:100AF00001045ED052EA03045BD0C3F30A54C1F38D
:100B00000A552C44A4F2F3340194A0FB0254C1F31F
:100B1000130141F48011C3F3130343F4801301FB69
:100B2000024400FB034E840A970A44EA815447EAD0
:100B30008357A4FB076802958D0A05FB07854FEADA
:100B4000932C04FB0C542705029D4FEA065847EAF4
:100B50001637B5EB08056EEB070C870E920E47EAC9
:100B6000811742EA8312A7FB0201B6EB0B0164EB8B
:100B700000042B0D43EA0C335E1844EB1C50DA469C
:100B80005146E7FB0201C5F313044FEA0B3343EA76
:100B900014534FEA0432019C43EA0603A4F10C0407
:100BA0000294009CCDE900B400F040FA03B0BDE827
:100BB000F08F00200146F9E72DE9F04D81EA0304AA
:100BC00004F0004B21F0004514464FF0000A23F0DA
:100BD000004150EA050220D054EA01021DD0C5F3BD
:100BE0000A570246C5F31303C1F31300C1F30A56B3
:100BF00040F4801543F48013A7EB0608101BD6467B
:100C000008F2FD3873EB050002D308F1010801E09A
:100C100092185B41B8F1000F03DA00200146BDE8ED
:100C2000F08D00204FF48011064684460EE0171B1D
:100C300073EB050705D3121B63EB050306434CEA70
:100C4000010C49084FEA300092185B4150EA010755
:100C5000EDD152EA030012D082EA040083EA0501D2
:100C6000084305D0101BAB4106D20122002306E049
:100C700000224FF0004302E06FF0010253101AEB24
:100C800006004CEB085110EB0A0041EB0B01BDE8EC
:100C9000F04D00F0BCB90EB5C10F80EAE070084419
:100CA000CA07002140F233438DE80E000A460B4686
:100CB00000F0BCF903B000BD0EB540F23341029123
:100CC0000021CDE900110A460B4600F0AFF903B050
:100CD00000BD70B5C1F30A5201F000450024C1F314
:100CE000130140F2FF3341F480119A4201DA0020EF
:100CF00070BD40F233439A42A2F2334203DC5242C7
:100D000000F0A5F800E090402C43F1D0404270BDC7
:100D1000C1F30A5210B5C1F3130140F2FF3341F49D
:100D200080119A4201DA002010BD40F233439A420A
:100D3000A2F2334203DC524200F089F810BD904029
:100D400010BDC1F30A52C1F3130140F2FF3341F465
:100D500080119A4202DA00200146704740F2334384
:100D60009A42A2F2334202DC524200F070B800F024
:100D70005FB800F0004230F000400AD0C10D01F52C
:100D80006071C0F3160042EA0151C20840071143E6
:100D9000704700200146704730B5041E71F1000411
:100DA00004DB4FF00044404264EB0101141E73F178
:100DB000000405DB1C464FF00043524263EB040382
:100DC0008B4208BF824230BD30B5041E71F1000471
:100DD00004DB4FF00044404264EB0101141E73F148
:100DE000000405DB1C464FF00043524263EB040352
:100DF000994208BF904230BD01F0004330B421F069
:100E0000004150EA010206D00A0DA2F56072C1F35A
:100E10001301002A02DC30BC00207047440F44EA72
:100E2000C104C100E01830BC00EBC25000F0B8B8FB
:100E3000202A04DB203A00FA02F10020704791409A
:100E4000C2F1200320FA03F3194390407047202A8F
:100E500004DB203A21FA02F00021704721FA02F364
:100E6000D040C2F120029140084319467047202A21
:100E700006DBCB17203A41FA02F043EAE07306E0C2
:100E800041FA02F3D040C2F12002914008431946D2
:100E9000704700000FB4002300B589B00CA9009181
:100EA0000B996FF00042CB601E4B06931E4B0793CD
:100EB0000423CDE901321D4A089202466B46002008
:100EC00000F0F4F909B05DF814FB70B586B0064681
:100ED0004FF0FF300091CDE90101002015460C468E
:100EE00004903246694604A8FFF7D4FF03460498ED
:100EF000211825B108B10A4600E022462A600028E0
:100F00000DD0002B02DD0098884208D0081B009409
:100F1000CDE901043246694604A8FFF7BBFF06B0DD
:100F200070BD0000E51401080315010899110108BE
:100F30002DE9F04791460F4680460446002614F8F6
:100F4000015B2DB100F024F90068405DC007F6D1C7
:100F50002B2D02D02D2D18D0641E4A46394620462E
:100F600000F0E0FA27B13968A14201D1C7F800804A
:100F700071054FF002040BD54042002803DD1DF03F
:100F80009DFD0460A007BDE8F08746F48066E4E7B5
:100F90000028F8DA1DF092FD04606FF00040F2E7DF
:100FA0000029A8BF7047401C490008BF20F001007D
:100FB000704710B4B0FA80FC00FA0CF050EA01045B
:100FC00004BF10BC704749B1CCF1200421FA04F4ED
:100FD00011FA0CF118BF012121430843A3EB0C01C6
:100FE000CB1D4FEA00614FEA102042BF002010BC29
:100FF000704700EBC35010440029A4BF10BC7047D9
:10100000401C490008BF20F0010010BC704710B51B
:10101000141E73F1000408DA401C41F1000192181B
:101020005B411A4301D120F0010010BD2DE9F04DC4
:1010300092469B4611B1B1FA81F202E0B0FA80F219
:1010400020329046FFF7F4FE04460F4640EA0A00BD
:1010500041EA0B0153465A46084313D0114653EA5E
:10106000010019D0C8F140025046FFF7F0FE0546D6
:101070000E46504659464246FFF7DAFE084305D071
:10108000012004E020463946BDE8F08D00200543EC
:1010900046EAE0762C4337430A986305E40AA0EB5E
:1010A00008000022FD0A44EA47540A3002D5002015
:1010B0000146E9E7010510196941DDE90845001914
:1010C0006941BDE8F04DA2E72DE9F04D00231A4635
:1010D0001B1A8A4103DB00200146BDE8F08DC1F3F5
:1010E0000A52C1F3130141F480154FF0000BD107F0
:1010F00002D100186D41521E0027044640F2FF1134
:10110000384601EB620A3E468046024600204FF414
:101110008011FFF79CFEC2197141BB1846EB01001C
:10112000B4EB030C75EB000C04D3E41A65EB00057B
:1011300017460E46241908F101006D4180463428F7
:10114000E3DDF91946EB0600091BA84103D24FF075
:10115000FF32134601E0002213461BEB070046EB6B
:101160000A51BDE8F04DFFF752BF0000064C074D95
:1011700006E0E06840F0010394E807009847103467
:10118000AC42F6D3FFF70AF828070308480703081C
:1011900000487047BC05030810B50446FFF7F8FF88
:1011A0000068005D00F0010010BD00002DE9FF4F58
:1011B000087881B09946FF2805D0491C2D2804D015
:1011C0000024002308E000230BE00124F9E703EBEF
:1011D000830300EB4303491C0878FF28F7D104B1CF
:1011E0005B4200200090147801462D2C01D02B2C5E
:1011F00004D1521C2D2C12D0002400940025167806
:10120000FF2E0ED00A24A0FB04C801FB0481002796
:1012100000FB0711521C16EB0C006941EFE701249B
:10122000EBE7994450EA01020ED00024AA4D26466D
:10123000DFF8A88200F0D3F982468B46B9F10000AE
:1012400009DAC9F100071BE001980021C0E900118B
:1012500005B0BDE8F08F074612E0F80707D0224638
:101260002B4630464146FFF735FC06468846224667
:101270002B4610461946FFF72DFC04460D467F10FD
:10128000002FEAD1B9F1000F324643465046594685
:1012900002DAFFF791FC01E0FFF71CFC009A0AB1AB
:1012A00081F00041019AC2E90001D1E72DE9FF4F29
:1012B0001F468DB0D7E901464FF0FF382E20454636
:1012C0004FF000090B90B9696D1C0E988847396A78
:1012D000824688470028F6D1BAF1FF3F0AD024F4AD
:1012E000D064002E11DDBAF12B0F08D0BAF12D0F0A
:1012F0000BD102E0404611B0ABE744F48064B96919
:101300006D1C0E9888478246761E6946600501D599
:101310002D2000E02B208DF8000001F1010B0DF1D4
:10132000200809E0B9696D1C0E98884782460F981D
:1013300044F40074761E0560002E02DDBAF1300F11
:10134000F0D00B998A453ED144F0800406E00F9915
:10135000681CA9F1010944F400740860B9696D1CA6
:10136000761E0E98884782463028F0D02BE00B99E5
:101370008A4505D1200603D444F08004761E18E087
:1013800050461EF092FD08B30DF11301761E44F491
:1013900000748B4508D2AAF130000BF8010B20062F
:1013A00007D5A9F1010003E0200602D409F10100EC
:1013B0008146A00502D50F99681C0860B9696D1CAB
:1013C0000E9888478246002ED1DC53E0002E51DD76
:1013D000BAF1650F02D0BAF1450F4BD1A00549D53E
:1013E000B9696D1C24F44074761E0E9888478246B5
:1013F000002E0CDD2B2804D0BAF12D0F07D144F4B8
:101400008074B9696D1C0E9888478246761EE00587
:1014100001D52D2100E02B2108F8011BCDF82C80EF
:1014200021E00DF12901761E44F4007488450CD2A8
:10143000AAF1300010F0FF0088F8000002D10B99EB
:10144000884509D908F1010806E0E00501D52448DE
:1014500001E042F20F708146B9696D1C0E98884711
:1014600082460F980560002E04DD50461EF01DFDDB
:101470000028D6D1F9690E988847FF208BF8000024
:1014800088F800000020069007904B466A4608A99D
:1014900006A8FFF78BFEA00502D46FF001002AE733
:1014A00014F0240F0AD0E00714D1DDE906123868E1
:1014B000031D3B600068C0E900120BE0DDE9060196
:1014C000FFF79AFC0146E00704D13868021D3A6034
:1014D0000068016028460EE7000024400000F03F4D
:1014E000F1D8FFFF426842B1016811F8013B23B116
:1014F000521EC0E90012184670470121C160881EC3
:10150000704742685AB1C368016843B983688B4227
:1015100005D0491E521CC0E90012002070474FF050
:10152000FF3070472DE9F05F8246007800271546AE
:101530008B460AF10104B946302801D09DB113E071
:1015400014F8010B0127782803D0582801D045B1A1
:101550000AE00DB1102D07D10027102514F8010B5A
:1015600002E0082500E00A250026B0460EE005FB53
:10157000080005FB06F1012701EB10461FFA80F871
:10158000B6F5803F00D3B94614F8010B294600F0A8
:1015900018F80028EBDABBF1000F05D00FB1641E7C
:1015A00000E05446CBF80040B9F1000F06D01DF022
:1015B00085FA02210160C81EBDE8F09F48EA064096
:1015C000FAE73A2800D2303820F02002412A01D32D
:1015D000A2F13700884201D34FF0FF3070470EB5BB
:1015E00040F2334202920022CDE900221346FFF777
:1015F0001DFD03B000BD70B58C1810F8015B15F02F
:10160000070301D110F8013B2A1106D110F8012B74
:1016100003E010F8016B01F8016B5B1EF9D12B0799
:1016200005D40023521E0DD401F8013BFAE710F84F
:10163000013BCB1A921C03E013F8015B01F8015B3C
:10164000521EF9D5A142D8D3002070BD1D480078A4
:1016500002281BD100201C4908804FF400701B4950
:1016600008801B49088000201A4908804FF4007048
:1016700019490880194908800020194908804FF449
:10168000007018490880184908801AE000200E49A7
:1016900008804FF480600D4908800D4908800020C3
:1016A0000C4908804FF480600B4908800B49088082
:1016B00000200B4908804FF480600A4908800A49DD
:1016C0000880704763010020480000204A00002085
:1016D0004C0000204E00002050000020520000204E
:1016E0005400002056000020580000202DE9FF5F24
:1016F0002DED028B074689469246DDF848B0DDF8AD
:1017000040800BF00100002848D1002442E0002571
:1017100036E0002631E059F8260000EBC40090EDD9
:10172000002BB0EE421AF0EE621A05FB08600AEBDD
:10173000C00090ED002BB0EE420AF0EE620A53ECCE
:10174000102B51EC110BFFF7C5F941EC180B57F8B2
:10175000240000EBC50090ED001BB0EE410AF0EE56
:10176000610A53EC102B51EC180BFFF70CF957F8EA
:10177000242002EBC50203C2761C4645CBDB6D1C60
:101780000BF00200002801DD601C00E01198A84267
:10179000BFDC641C05988442B9DB7BE0002476E062
:1017A00000256AE0002665E0B44231DC59F82600E5
:1017B00000EBC40090ED002BB0EE421AF0EE621A7E
:1017C00005FB08600AEBC00090ED002BB0EE420A6A
:1017D000F0EE620A53EC102B51EC110BFFF77AF983
:1017E00041EC180B57F8240000EBC50090ED001BEE
:1017F000B0EE410AF0EE610A53EC102B51EC180BDD
:10180000FFF7C1F857F8242002EBC50203C230E00D
:1018100059F8240000EBC60090ED002BB0EE421A00
:10182000F0EE621A05FB08600AEBC00090ED002B99
:10183000B0EE420AF0EE620A53EC102B51EC110BA1
:10184000FFF748F941EC180B57F8240000EBC500EE
:1018500090ED001BB0EE410AF0EE610A53EC102B44
:1018600051EC180BFFF78FF857F8242002EBC50254
:1018700003C2761C464597DB6D1C0BF00200002866
:1018800001DD601C00E01198A8428BDC641C059807
:10189000844285DBBDEC028BBDE8FF9F2DE9FF5F35
:1018A0002DED028B074689469246DDF848B0DDF8FB
:1018B00040800BF00100002848D1002442E00025C0
:1018C00036E0002631E059F8240000EBC60090ED28
:1018D000002BB0EE421AF0EE621A05FB08600AEB2C
:1018E000C00090ED002BB0EE420AF0EE620A53EC1D
:1018F000102B51EC110BFFF7EDF841EC180B57F8DA
:10190000240000EBC50090ED001BB0EE410AF0EEA4
:10191000610A53EC102B51EC180BFFF734F857F811
:10192000242002EBC50203C2761C4645CBDB6D1CAE
:101930000BF00200002801DD601C00E01198A842B5
:10194000BFDC641C05988442B9DB7BE0002476E0B0
:1019500000256AE0002665E0A64231DC59F8240043
:1019600000EBC60090ED002BB0EE421AF0EE621ACA
:1019700005FB08600AEBC00090ED002BB0EE420AB8
:10198000F0EE620A53EC102B51EC110BFFF7A2F8AA
:1019900041EC180B57F8240000EBC50090ED001B3C
:1019A000B0EE410AF0EE610A53EC102B51EC180B2B
:1019B000FEF7E9FF57F8242002EBC50203C230E02E
:1019C00059F8260000EBC40090ED002BB0EE421A4F
:1019D000F0EE621A05FB08600AEBC00090ED002BE8
:1019E000B0EE420AF0EE620A53EC102B51EC110BF0
:1019F000FFF770F841EC180B57F8240000EBC50016
:101A000090ED001BB0EE410AF0EE610A53EC102B92
:101A100051EC180BFEF7B7FF57F8242002EBC50274
:101A200003C2761C464597DB6D1C0BF002000028B4
:101A300001DD601C00E01198A8428BDC641C059855
:101A4000844285DBBDEC028BBDE8FF9F2DE9FF5F83
:101A50002DED028B8A469346DDE911971099C90056
:101A600001FB07F01EF0C6FB8046149800F0010051
:101A7000002849D1002443E000253EE09FED8A0B79
:101A800004FB075008EBC00080ED000B002631E09E
:101A90005BF8250000EBC60090ED002BB0EE420A8B
:101AA000F0EE620A04FB09600AEBC00090ED002B27
:101AB000B0EE421AF0EE621A53EC102B51EC110BFF
:101AC000FFF708F841EC180B04FB075008EBC000C7
:101AD00090ED001BB0EE410AF0EE610A53EC102BC2
:101AE00051EC180BFEF74FFF04FB075208EBC20244
:101AF00003C2761C4E45CBDB6D1CBD42BEDB641CB5
:101B000010988442B8DB7CE0002477E0002572E086
:101B10009FED650B04FB075008EBC00080ED000B48
:101B2000002665E0AE4231DC5BF8250000EBC60024
:101B300090ED002BB0EE420AF0EE620A04FB096061
:101B40000AEBC00090ED002BB0EE421AF0EE621AE4
:101B500053EC102B51EC110BFEF7BCFF41EC180BB2
:101B600004FB075008EBC00090ED001BB0EE410AEB
:101B7000F0EE610A53EC102B51EC180BFEF703FF4B
:101B800004FB075208EBC20203C230E05BF82600F8
:101B900000EBC50090ED002BB0EE420AF0EE620AB9
:101BA00004FB09600AEBC00090ED002BB0EE421A76
:101BB000F0EE621A53EC102B51EC110BFEF78AFF7A
:101BC00041EC180B04FB075008EBC00090ED001B24
:101BD000B0EE410AF0EE610A53EC102B51EC180BF9
:101BE000FEF7D1FE04FB075208EBC20203C2761CCB
:101BF0004E4597DB6D1CBD428ADB641C1098844205
:101C000084DB002446E0002539E0002634E005FBB3
:101C10000761059800EBC10090ED002BB0EE420A81
:101C2000F0EE620A04FB076008EBC00090ED002BA9
:101C3000B0EE421AF0EE621A53EC102B51EC110B7D
:101C4000FEF748FF41EC180B029850F8240000EB17
:101C5000C50090ED001BB0EE410AF0EE610A53ECB6
:101C6000102B51EC180BFEF78EFE029A52F824202E
:101C700002EBC50203C2761CBE42C8DB6D1C149881
:101C800000F00200002801DD601C00E01398A8426B
:101C9000BBDC641C10988442B5DB40461EF0A6F9FC
:101CA000BDEC028BBDE8FF9F0000000000000000BB
:101CB0002DE9FF5F2DED028B8A469346DDE91197F2
:101CC0001099C90001FB07F01EF094FA80461498A1
:101CD00000F00100002849D1002443E000253EE047
:101CE0009FED8A0B04FB075008EBC00080ED000B52
:101CF000002631E05BF8260000EBC50090ED002BDC
:101D0000B0EE420AF0EE620A04FB09600AEBC00082
:101D100090ED002BB0EE421AF0EE621A53EC102B4D
:101D200051EC110BFEF7D6FE41EC180B04FB0750EB
:101D300008EBC00090ED001BB0EE410AF0EE610A26
:101D400053EC102B51EC180BFEF71DFE04FB075251
:101D500008EBC20203C2761C4E45CBDB6D1CBD42B4
:101D6000BEDB641C10988442B8DB7CE0002477E082
:101D7000002572E09FED650B04FB075008EBC000E7
:101D800080ED000B002665E0B54231DC5BF82600F3
:101D900000EBC50090ED002BB0EE420AF0EE620AB7
:101DA00004FB09600AEBC00090ED002BB0EE421A74
:101DB000F0EE621A53EC102B51EC110BFEF78AFE79
:101DC00041EC180B04FB075008EBC00090ED001B22
:101DD000B0EE410AF0EE610A53EC102B51EC180BF7
:101DE000FEF7D1FD04FB075208EBC20203C230E04C
:101DF0005BF8250000EBC60090ED002BB0EE420A28
:101E0000F0EE620A04FB09600AEBC00090ED002BC3
:101E1000B0EE421AF0EE621A53EC102B51EC110B9B
:101E2000FEF758FE41EC180B04FB075008EBC0000E
:101E300090ED001BB0EE410AF0EE610A53EC102B5E
:101E400051EC180BFEF79FFD04FB075208EBC20292
:101E500003C2761C4E4597DB6D1CBD428ADB641CB9
:101E60001098844284DB002446E0002539E00026F7
:101E700034E005FB0761059800EBC10090ED002BF5
:101E8000B0EE420AF0EE620A04FB076008EBC00005
:101E900090ED002BB0EE421AF0EE621A53EC102BCC
:101EA00051EC110BFEF716FE41EC180B029850F89E
:101EB000240000EBC50090ED001BB0EE410AF0EEEF
:101EC000610A53EC102B51EC180BFEF75CFD029AE3
:101ED00052F8242002EBC50203C2761CBE42C8DBC6
:101EE0006D1C149800F00200002801DD601C00E069
:101EF0001398A842BBDC641C10988442B5DB4046B2
:101F00001EF074F8BDEC028BBDE8FF9F00000000DE
:101F1000000000002DE9F04706460F4691469A461C
:101F2000DDF8208008F0010080BB00242BE00025B4
:101F30001FE057F8240000EBC50090ED002BB0EE39
:101F4000420AF0EE620A56F8240000EBC50090ED5C
:101F5000002BB0EE421AF0EE621A53EC102B51EC4B
:101F6000110BFEF710FD56F8242002EBC50203C248
:101F70006D1C08F00200002801DD601C00E05046E6
:101F8000A842D6DC641C4C45D1DB52E0FFE70024BC
:101F90004DE0002541E0A5421FDC57F8240000EB8E
:101FA000C50090ED002BB0EE420AF0EE620A56F842
:101FB000240000EBC50090ED002BB0EE421AF0EECD
:101FC000621A53EC102B51EC110BFEF7DCFC56F8A7
:101FD000242002EBC50203C21EE057F8250000EBE7
:101FE000C40090ED002BB0EE420AF0EE620A56F803
:101FF000240000EBC50090ED002BB0EE421AF0EE8D
:10200000621A53EC102B51EC110BFEF7BCFC56F886
:10201000242002EBC50203C26D1C08F00200002858
:1020200001DD601C00E05046A842B4DC641C4C4555
:10203000AFDBBDE8F087000010B52DED0E8B00245E
:102040009FEDFA0AB0EE40EAF948007800287DD00A
:102050000020F7490870F7480078002877D0002062
:10206000F449087013F012FDF34890ED081BB0EE30
:10207000410AF0EE610A9FEDF11B53EC112B51EC7C
:10208000100BFEF727FDEF4AC2E90601EA4890ED82
:10209000021BB0EE410AF0EE610A9FEDE81B53EC23
:1020A000112B51EC100BFEF715FDE64AC2E90401B5
:1020B000E14890ED100B104680ED080BDE4890F8DB
:1020C0003100114681F84500DB4890F8320081F874
:1020D0004600D94890ED0E1BB0EE410AF0EE610AC1
:1020E00051EC100BFEF788FED649C867D24890F82D
:1020F0003200072802DD0120D3490870D348007858
:10210000D04981F89800CC48007840B20871CA489C
:10211000407840B24871C848807840B28871C6485B
:10212000808800B20881084690ED061BB0EE410A97
:10213000F0EE610A9FEDC61B53EC112B51EC100B16
:10214000FEF742FE06D2BF48C16901E063E359E0F1
:1021500080690AE0BB4890ED061BB0EE410AF0EE44
:10216000610A51EC100B81F0004141EC1C0B9FED1A
:10217000B80B53EC102BFEF727FE2ED2B14890ED92
:10218000041BB0EE410AF0EE610A9FEDB11B53EC67
:10219000112B51EC100BFEF717FE03D2A948416931
:1021A00000690AE0A74890ED041BB0EE410AF0EE8A
:1021B000610A51EC100B81F0004141EC1C0B9FEDCA
:1021C000A40B53EC102BFEF7FFFD06D29D48C07AFE
:1021D00040F003009B49C87202E000209949C87290
:1021E0009D480078322804D10120964981F8840066
:1021F00003E00520934981F8840007F0A9FE01203F
:102200009649087096480078002878D000209449B4
:1022100008709448007840B28A4908719148407823
:1022200040B248718F48807840B288718D4880886C
:1022300000B2088108460079A0B90846407988B9FB
:102240000846807970B988480078401C8649087033
:102250000846007805281ADB002008700120834911
:10226000087014E0774890F90400002809DC7548EC
:1022700090F90500002804DC724890F90600002857
:1022800005DD7048008910B901207849087075484B
:1022900090ED061BB0EE410AF0EE610A9FED671B60
:1022A00053EC112B51EC100BFEF714FC654AC2E9FC
:1022B00006016C4890ED021BB0EE410AF0EE610A97
:1022C0009FED5E1B53EC112B51EC100BFEF702FC43
:1022D0005C4AC2E90401104690ED061BB0EE410ACB
:1022E000F0EE610A9FED5A1B53EC112B51EC100BD1
:1022F000FEF76AFD04D25348C16980690BE05DE1D5
:10230000504890ED061BB0EE410AF0EE610A51EC28
:10231000100B81F0004141EC1C0B9FED4D0B53EC79
:10232000102BFEF751FD2ED2464890ED041BB0EE67
:10233000410AF0EE610A9FED461B53EC112B51EC64
:10234000100BFEF741FD03D23E48416900690AE0E7
:102350003C4890ED041BB0EE410AF0EE610A51ECEE
:10236000100B81F0004141EC1C0B9FED390B53EC3D
:10237000102BFEF729FD06D23248C07A40F0030048
:102380003049C87202E000202E49C87238480078EF
:10239000D8B138480078401C3649087008460078A3
:1023A000642804DB64200870002031490870012093
:1023B0002C4981F839009FED300B084680ED0C0B5D
:1023C0009FED2F0B80ED0A0B02E0002029490870D9
:1023D000244890ED0A1BB0EE410AF0EE610A9FED31
:1023E0002A1B53EC112B51EC100BFEF773FB41EC45
:1023F000180B1C4890F83900012849D1194890ED74
:102400000C1BB0EE410AF0EE610A9FED0C1B53EC81
:10241000112B51EC100BFEF75DFB41EC190B51EC4D
:10242000190BFEF7E9FC0749086438E000000000DA
:1024300021010020D300002060130020399D52A20A
:1024400046DF913F901A0020F1000020EC000020B0
:102450000000000000000000BC0000203802002046
:10246000D4000020F01300203E02002025010020AF
:10247000CB0000203D02002000000000000054407E
:1024800000000000000024403BEC0F325476E03F97
:102490001FED119B1FED1B0AE24880ED100AB0EE04
:1024A000490AF0EE690A1CF0AFFFB0EE40AAF0EE68
:1024B00060AAB0EE490AF0EE690A1CF035FFB0EEF2
:1024C00040BAF0EE60BA53EC1A2B51EC180BFEF741
:1024D00001FBD44AC2E90A0153EC1B2B51EC180B47
:1024E000FEF7F8FACF4AC2E90C01CF4890F839005C
:1024F000012809D11046C07A40F040001146C87248
:10250000012081F8440008E0C648C07A00F0BF000E
:10251000C449C872002081F84400C248C07A40F023
:102520001000C049C872C048808F0880BE4890F82B
:102530003B0040B28870BC4890F83A0040B2C87086
:10254000B948808FB9490880B74890F83B0040B23D
:102550008870B54890F83A0040B2C870B24890F818
:102560004A004E2803D10020AE49887219E0AE48D7
:1025700090F84A00412803D10120AA49887210E04E
:10258000A94890F84A00442803D10220A54988723E
:1025900007E0A54890F84A00452802D1FF20A1494C
:1025A0008872A1488079412805D000209D49887211
:1025B000C87281F8450001209D4908709D48007847
:1025C000002870D000209B4908709B4890ED081BA4
:1025D000B0EE410AF0EE610A1FED551B53EC112BD2
:1025E00051EC100BFEF776FA41EC180B924890F87C
:1025F0003A00012817D1904890ED001BB0EE410A37
:10260000F0EE610A1FED731B53EC112B51EC100B14
:10261000FEF760FA41EC190B51EC190BFEF7ECFBDD
:10262000804908640AE01FED760BB0EE409AF0EEA8
:10263000609A1FED820A7B4880ED100AB0EE490ACD
:10264000F0EE690A1CF0E0FEB0EE40AAF0EE60AADF
:10265000B0EE490AF0EE690A1CF066FEB0EE40BA30
:10266000F0EE60BA53EC1A2B51EC180BFEF732FA6D
:102670006C4AC2E90A0153EC1B2B51EC180BFEF714
:1026800029FA684AC2E90C016B4890F83A0001281F
:102690000AD11046C07A40F040001146C8720120AD
:1026A00081F8440009E033E05E48C07A00F0BF00E2
:1026B0005C49C872002081F844005A48C07A40F052
:1026C00010005849C8725C4890F839004E2802D171
:1026D0000020887219E0584890F83900412803D149
:1026E00001205049887210E0534890F8390044287E
:1026F00003D102204B49887207E04F4890F8390017
:10270000452802D1FF204749887201204B490870B3
:102710004B480078A0B3002049490870494890ED23
:10272000010A404880ED220A464890ED020A3D48E1
:1027300080ED230A434890ED020A20EE000AD0ED16
:10274000010A90ED011A00EE810A10EE101A0846F7
:10275000FEF70FFB41EC1D0BB0EE4D0AF0EE6D0ADB
:102760001CF0B6FEB0EE40CAF0EE60CA51EC1C0B95
:10277000FEF742FB2B49C1F8940001203249087052
:102780003248007810B10020304908703048007895
:1027900010B100202E4908702E48007801283ED143
:1027A00023480078012803D024480078012836D136
:1027B0000020284908701E4908702049087001202F
:1027C0002549087025480078F8B92548007801287F
:1027D00002D12449087018E023488088A8B922480B
:1027E00090F88D0070B921480078401C1F4908708E
:1027F00008460078052808DB0020087001201949E8
:10280000087002E00120174908701948007818B9CB
:1028100001201849086002E0012017490860BDEC5A
:102820000E8B10BD901A0020F0130020501A0020CB
:1028300039020020D5000020481400203B0200206F
:10284000D6000020881400203C020020D700002081
:10285000D800002038020020200100206401002060
:10286000270100201B010020601300203A020020F5
:10287000BA000020CC010020D001002010B51DF0CE
:10288000A5FA174908701DF0A1FA154948701DF006
:102890009DFA134988701DF099FA1149C8701DF00E
:1028A00095FA0F4908711DF091FA0D4948711DF014
:1028B0008DFA0B4988711DF089FA0949C871002405
:1028C00004E0002007490855601CC4B2082CF8DB5E
:1028D00004490348FDF7C0FE0349087010BD00001D
:1028E000E1010020D9010020D801002010B51021FD
:1028F000494806F01CFC05201DF020FB102146482D
:1029000006F013FC32201DF019FB802019F0C6FEE2
:10291000002019F0C3FE4149087010213E4806F01E
:1029200006FC4FF4FA701DF009FB10213A4806F03E
:10293000FCFB0A201DF002FB7E2019F0AFFE1120E7
:1029400019F0ACFE1021344806F0F1FB4FF4FA7098
:102950001DF0F4FA1021304806F0E7FB0A201DF0C4
:10296000EDFA7E2019F09AFE152019F097FE10213D
:10297000294806F0DCFB4FF4FA701DF0DFFA102155
:10298000254806F0D2FB0A201DF0D8FA402019F0A5
:1029900085FE2C2019F082FE10211F4806F0C7FB8F
:1029A0004FF4FA701DF0CAFA10211B4806F0BDFB67
:1029B0000A201DF0C3FA412019F070FE032019F01F
:1029C0006DFE1021144806F0B2FB4FF4FA701DF0B2
:1029D000B5FA1021104806F0A8FB0A201DF0AEFA47
:1029E000422019F05BFE2C2019F058FE10210A48F5
:1029F00006F09DFB4FF4FA701DF0A0FA1021064876
:102A000006F093FB0A201DF099FA422019F046FEC9
:102A1000032019F043FE10BD0000024074020020A4
:102A20001CB502469FED090B8DED000B6B46002097
:102A300000BF05E0545C1C54441CE0B24C1CE1B2E5
:102A40000828F7DB9DED000B1CBD00000000000016
:102A50000000000070B52DED088B04460D4694ED86
:102A6000102BB0EE420AF0EE620A94ED102BB0EE9D
:102A7000421AF0EE621A53EC102B51EC110BFEF7D8
:102A800029F841EC1A0B94ED0E2BB0EE420AF0EE51
:102A9000620A94ED0E2BB0EE421AF0EE621A53EC7D
:102AA000102B51EC110BFEF715F841EC1B0B53ECFE
:102AB0001A2BFDF768FF41EC190BB0EE490AF0EE56
:102AC000690A1CF005FDB0EE408AF0EE608A9FEDC9
:102AD0003A0B53EC102B51EC180BFEF775F900D2A2
:102AE00005E09FED350BB0EE408AF0EE608A94ED84
:102AF000002BB0EE421AF0EE621A94ED062BB0EE07
:102B0000420AF0EE620A1CF0FBFA85ED000B94ED30
:102B10000C1BB0EE410AF0EE610A51EC100B81F093
:102B2000004141EC1A0B53EC182BFEF745F841EC31
:102B3000190BB0EE490AF0EE690A1CF075F985ED43
:102B4000020B94ED102BB0EE421AF0EE621A94EDE7
:102B50000E2BB0EE420AF0EE620A1CF0D1FA85EDBF
:102B6000040B95ED001BB0EE410AF0EE610A9FEDFB
:102B7000141B53EC112B51EC100BFDF704FF41EC2F
:102B8000190B9FED0F0B53EC102BFEF705F90FD22D
:102B900095ED001BB0EE410AF0EE610A9FED0A1BB5
:102BA00053EC112B51EC100BFDF7EDFEC5E90001C4
:102BB000BDEC088B70BD00002D431CEBE2361A3FC4
:102BC000000000000000F03F182D4454FB21194084
:102BD00070B52DED088B04460D46164695ED042B79
:102BE000B0EE420AF0EE620A94ED042BB0EE421A07
:102BF000F0EE621A53EC102B51EC110BFDF76AFF4B
:102C000041EC180B95ED022BB0EE420AF0EE620A91
:102C100094ED022BB0EE421AF0EE621A53EC102B38
:102C200051EC110BFDF756FF41EC1A0B95ED002B03
:102C3000B0EE420AF0EE620A94ED002BB0EE421ABA
:102C4000F0EE621A53EC102B51EC110BFDF742FF22
:102C500041EC1B0B53EC1A2BFDF795FE41EC190BC5
:102C600053EC182BFDF78FFEC6E9000195ED042B00
:102C7000B0EE420AF0EE620A94ED0A2BB0EE421A70
:102C8000F0EE621A53EC102B51EC110BFDF722FF02
:102C900041EC180B95ED022BB0EE420AF0EE620A01
:102CA00094ED082BB0EE421AF0EE621A53EC102BA2
:102CB00051EC110BFDF70EFF41EC1A0B95ED002BBB
:102CC000B0EE420AF0EE620A94ED062BB0EE421A24
:102CD000F0EE621A53EC102B51EC110BFDF7FAFEDB
:102CE00041EC1B0B53EC1A2BFDF74DFE41EC190B7D
:102CF00053EC182BFDF747FEC6E9020195ED042BB6
:102D0000B0EE420AF0EE620A94ED102BB0EE421AD9
:102D1000F0EE621A53EC102B51EC110BFDF7DAFEBA
:102D200041EC180B95ED022BB0EE420AF0EE620A70
:102D300094ED0E2BB0EE421AF0EE621A53EC102B0B
:102D400051EC110BFDF7C6FE41EC1A0B95ED002B73
:102D5000B0EE420AF0EE620A94ED0C2BB0EE421A8D
:102D6000F0EE621A53EC102B51EC110BFDF7B2FE92
:102D700041EC1B0B53EC1A2BFDF705FE41EC190B34
:102D800053EC182BFDF7FFFDC6E90401BDEC088BE1
:102D900070BD000010B52DED028B0446784890F808
:102DA000760378B1012077490870002076490870D1
:102DB0007649088076490880B7EE000A704880EDB1
:102DC000CD0AC4E06F48007801285FD16C4890EDCF
:102DD000AF0AB5EEC00AF1EE10FA02DD90EDAF0ACF
:102DE00004E0674890EDAF0AB1EE400AF3EE0E0A38
:102DF000B4EEE00AF1EE10FA2CD26148B0F8000609
:102E000094F8841001EB8101884223DB5C4890ED4B
:102E1000B00AB5EEC00AF1EE10FA02DD90EDB00A8C
:102E200004E0574890EDB00AB1EE400AF3EE0E0A06
:102E3000B4EEE00AF1EE10FA0CD2514890EDB60A69
:102E4000DFED540AB4EEE00AF1EE10FA02D20120EE
:102E50004D4908704A4890F8F20220B94C48008861
:102E6000401C4B49088094F8840000EB80004849DE
:102E70000988B1EB800F09DD94F8840000EB800035
:102E800080004349088001203F4908703C4890F881
:102E9000EC0201285BD13B480078012857D1384823
:102EA00090F81903012852DB354890F8ED02082804
:102EB0004DDB35480078012849D1314890F8F202BD
:102EC000F0BB32480088401C3049088094F88400E8
:102ED000C0EB00100988B1EB800F11DD00202949FB
:102EE00008702949087094F88400C0EB0010800035
:102EF00026490880B7EE000A214880EDCD0A26E079
:102F00001F4890F845032149098891FBF0F0C0F172
:102F10003C0000EE100AB8EEC00A194880EDCD0A58
:102F200090EDCD0A10EE101A0846FDF722FF41EC95
:102F3000180B9FED190B53EC102BFDF72DFF00E044
:102F400005E004D2B7EE000A0D4880EDCD0A0C482A
:102F500090EDCD0A10EE101A0846FDF70AFF41EC7D
:102F6000180B9FED0D0B53EC102BFDF715FF04D242
:102F7000B7EE000A024880EDCD0ABDEC028B10BD11
:102F8000E02400206203002063030020640300208B
:102F90006603002000009643000000000000F03FA0
:102FA00030B50346C41700EB14742211D41702EB9A
:102FB00014742111CC1701EB1474C4F307142A4DB7
:102FC0002C700246C31700EB13731911CB1701EBDA
:102FD00013731C112B461B78A4EB03132C46637050
:102FE0000146C21700EB1272131122461278A3EBAE
:102FF000022322465278A3EB021223469A70194606
:103000000978A0EB013219464978A2EB0122194652
:103010008978A2EB01111A46D1700021134A117070
:103020001DE01149114A1278895C092909DC0E4911
:103030000E4A1278895C30310B4A0C4B1B78D15404
:1030400008E00949094A1278895C3731064A074B7A
:103050001B78D15405490978491C044A1170034969
:1030600009780429DDDB30BDB80A0020AF0200205A
:103070000146C21700EB1272C2F30712174B1A7007
:1030800019460978A0EB01111A4651700021144A23
:1030900011701EE01149124A1278895C09290ADC74
:1030A0000E490F4A1278895C3031CAB20B490C4B79
:1030B0001B78CA5408E00949094A1278895C3731FB
:1030C000064A074B1B78D15405490978491C044A24
:1030D0001170034909780229DCDB7047B80A002027
:1030E000B002002010B5002423480068234908607E
:1030F0002148001D006848601F480830006888604B
:10310000084600881E4908801C480068000C48805A
:103110001A488088888019484068000CC880174881
:103120000089088115488068000C488100BF1FE0B5
:10313000134931F81400FFF733FF124800780021DB
:1031400001EB8401104A50540E484078012101EBF4
:10315000840150540B488078022101EB84015054C3
:103160000848C078032101EB84015054601CC4B2AC
:10317000062CDDDB10BD0000107AFF1F981C00201C
:103180008C1C0020B80A002005190020164890ED7C
:10319000001AF0EE001AC1EE210AF4EEC00AF1EEB8
:1031A00010FA08D2D0ED000AB0EE001AC0EE811A73
:1031B000B0EE610A17E00C48D0ED000AB1EE601ADB
:1031C000F0EE001AC1EE210AF4EEC00AF1EE10FA98
:1031D00009DDD0ED000AF1EE600AB0EE001AC0EE93
:1031E000811AB0EE610A7047BC0100200B490968E2
:1031F00019B10021094A11600DE044F620618842AE
:1032000003DD0749098808B205E00649884202DA69
:103210000349098808B20249086070478402002007
:1032200088020020E0B1FFFF0E48D0ED000AB4EEA6
:10323000E00AF1EE10FA04DDD0ED000AB0EE600A0B
:103240000FE00848D0ED000AF1EE600AB4EEE00AA3
:10325000F1EE10FA05D2D0ED000AF1EE600AB0EE00
:10326000600A7047BC0100200B49096819B10021B0
:10327000094A11600DE044F62061884203DD0749E8
:10328000098808B205E00649884202DA034909883C
:1032900008B20249086070478C02002090020020AA
:1032A000E0B1FFFF0B49096819B10021094A11601B
:1032B0000DE044F62061884203DD0749098808B221
:1032C00005E00649884202DA0349098808B2024942
:1032D000086070479402002098020020E0B1FFFFD0
:1032E0000B49097819B10021094A11700CE0B0F5B9
:1032F000FA6F03DD0749B1F9000005E010F5FA6F38
:1033000002DA0449B1F90000024908807047000060
:103310007C0200207E0200200B49097819B10021AF
:10332000094A11700CE0B0F5FA6F03DD0749B1F9F5
:10333000000005E010F5FA6F02DA0449B1F9000067
:103340000249088070470000780200207A020020BD
:103350000B49097819B10021094A11700CE0B0F548
:10336000FA6F03DD0749B1F9000005E010F5FA6FC7
:1033700002DA0449B1F900000249088070470000F0
:10338000750200207602002010B50C480078012854
:1033900012D10B48007878B9002008490870094814
:1033A00000780949088008460088002804DD07489D
:1033B0001BF01AFA1AF000FA10BD00007301002089
:1033C000740100206E0100201E0100201117002052
:1033D000014600209C4A9D4B1B78D1549B4A127891
:1033E000521C9A4B1A701A461278012A22D1964A18
:1033F0001278412A03D10222954B1A701AE0924AA0
:103400001278602A03D10F22914B1A7012E08E4A73
:103410001278612A03D12D228D4B1A700AE08A4A54
:103420001278652A03D10F22894B1A7002E001221B
:10343000874B1A70854A1278854B1B789A427DDB40
:103440000022824B1A70804A1078012801D0062889
:1034500007D101227F4B1A707F4A107001227F4BE7
:103460001A70412805D0502803D0512801D0552882
:1034700007D10122774B1A70794A10700222774BDC
:103480001A7065282AD1704A52780F2A26D16E4ABE
:10349000927BFF2A22D16C4AD378927803EB0222E6
:1034A000704B1A80684A5379127903EB02226E4BF3
:1034B0001A80654AD379927903EB02226B4B1A800A
:1034C000614A537A127A03EB0222694B1A805E4AF0
:1034D000D37A927A03EB0222664B1A8060285ED17F
:1034E000594A52780F2A29D1574A927BFF2AFAD19A
:1034F000554A9278544BDB7803EB022212B25E4BB2
:103500001A80514A1279504B5B7903EB022212B2B6
:103510005A4B1A804C4A92794B4BDB7903EB0222CF
:1035200012B2574B1A80554AB2F90020554B1A80F7
:10353000514AB2F90020544B1A8000E082E0504A10
:10354000B2F90020514B1A803F4A127A3E4B5B7A07
:1035500003EB022212B24E4B1A803B4A927A3A4B4C
:10356000DB7A03EB022212B24A4B1A80364A127BF4
:10357000354B5B7B03EB022212B2474B1A80454A64
:10358000B2F90020454B1A80414AB2F90020444B61
:103590001A80414AB2F90020424B1A8052E0612859
:1035A00050D1294A52782D2A4CD1274A92F82C2002
:1035B000FF2A47D1244AD378927803EB022212B231
:1035C000394B1A80204A5379127903EB022212B246
:1035D000364B1A801C4AD379927903EB022212B23D
:1035E000334B1A80184A537A127A03EB022212B232
:1035F000304B1A80144AD37A927A03EB022212B229
:103600002D4B1A80104A537B127B03EB022212B21D
:103610002A4B1A800C4AD37B927B03EB022212B214
:10362000274B1A80084A537C127C03EB022212B209
:10363000244B1A80044AD37C927C03EB022212B200
:10364000214B1A8070470000A118002021000020A3
:103650006F0100207201002066010020710100202E
:103660007001002080010020820100207C010020E8
:103670007E0100208401002096000020940000209C
:1036800098000020880000208A0000208C00002084
:103690009C0000209A0000209E0000208E00002048
:1036A0009000002092000020480000204E000020E2
:1036B000540000204A000020500000205600002046
:1036C0004C000020520000205800002070B52DED65
:1036D0000C8B0446A24890F81903012801DB012550
:1036E00000E000252CB1E07A00F05000502800D115
:1036F00015B9BDEC0C8B70BD94ED0C2BB0EE420AED
:10370000F0EE620A94ED0C2BB0EE421AF0EE621A63
:1037100053EC102B51EC110BFDF7DCF941EC1C0BB9
:1037200094ED0A2BB0EE420AF0EE620A94ED0A2BF9
:10373000B0EE421AF0EE621A53EC102B51EC110B62
:10374000FDF7C8F941EC1D0B53EC1C2BFDF71BF9E1
:1037500041EC1B0BB0EE4B0AF0EE6B0A1BF0B8FE0F
:10376000B0EE40AAF0EE60AA9FED7E0B53EC102B5A
:1037700051EC1A0BFDF710FB00D2BAE794ED0C2BBD
:10378000B0EE421AF0EE621A94ED0A2BB0EE420A45
:10379000F0EE620A1BF0B4FCB0EE409AF0EE609AD4
:1037A0009FED720B53EC102B51EC190BFDF792F9B6
:1037B00041EC1C0B9FED6F0B53EC102BFDF704FB42
:1037C00008D29FED6A0B53EC102B51EC190BFDF74F
:1037D00081F90BE09FED650B53EC102B51EC190BAD
:1037E000FDF778F941EC1C0B81F0004141EC1B0B1B
:1037F0009FED620B53EC102BFDF7CEFA7ED894EDC3
:103800000C2BB0EE421AF0EE621A94ED0A2BB0EED9
:10381000420AF0EE620A1BF073FCB0EE40CAF0EE12
:1038200060CA4F4890ED241BB0EE410AF0EE610AE9
:1038300053EC102B51EC1C0BFDF746F941EC1B0B24
:103840009FED4A0B53EC102BFDF744F941EC180B9C
:103850009FED4C0B53EC102B51EC180BFDF7B4FA09
:1038600009D29FED460B53EC102B51EC180BFDF7D2
:103870002BF941EC180B9FED450B53EC102B51EC41
:10388000180BFDF789FA09D29FED3C0B53EC102B76
:1038900051EC180BFDF777F841EC180B9FED350B49
:1038A00053EC102B51EC180BFDF78EFA02D251ECB1
:1038B000180B03E051EC180B81F0004141EC180BA0
:1038C0009FED340B53EC102B51EC180BFDF764FA01
:1038D00032D294ED0C2BB0EE421AF0EE621A94ED57
:1038E0000A2BB0EE420AF0EE620A1BF009FC1C48FB
:1038F00080ED240B00F1A801903000E02DE001F0F4
:10390000BFFA1749E831A1F1400018F097F82348B1
:103910000088401C214908809FED210B53EC102B9F
:1039200051EC1A0BFDF750FA10D20D48806940F0A7
:1039300008000B49886109E0184800881E2805DD49
:103940000748806940F008000549886113480088ED
:10395000322802DB32201149088000BFC9E600008E
:10396000E02400200000000000001240F8C1631AAB
:10397000DCA54C400000000000000000000000003A
:1039800000807640000000000080664000000000DB
:10399000008066C00000000000002440BE0300203C
:1039A0000000000000001440024600207F2A08DDCD
:1039B00001EB022318B2431E18B2C043001140426B
:1039C00003E001EB022318B20011704708B501EEC5
:1039D000900AF8EEE11AB7EE002AC1EE822ACDED88
:1039E000002A01EE901AF8EEE11AF0EE610A01EEFB
:1039F000902AF8EEE11A9FED0B2AC1EE822AB0EE72
:103A0000621A01EE900AF8EEE11A71EEE01A61EE28
:103A1000811AB0EE610A1BB1F1EE401AB0EE610AF4
:103A200008BD00000000FA4502EE900AF8EEE22A16
:103A3000F0EE620A144AB2F9002002EE902AF8EE83
:103A4000E22AB0EE621A114AB2F9002002EE902A80
:103A5000F8EEE22AF0EE621A0D4AB2F9002002EE08
:103A6000902AF8EEE22AB0EE622AF4EEC10AF1EEF4
:103A700010FA04DD70EEC12A82EEA10A03E070EEB6
:103A8000C12A82EE820A7047480000204A000020C6
:103A90004C00002070B52DED068B04460D46B4F5A4
:103AA0007A7F02DD4FF47A7403E014F57A7F00DA4E
:103AB000144C00EE104AB8EEC00ADFED130A80EE97
:103AC000201A11EE106A3046FDF753F941EC1A0B3B
:103AD000B0EE4A0AF0EE6A0A1AF0F6FFB0EE409A2B
:103AE000F0EE609A51EC190BFDF786F908EE100A1A
:103AF0001DB1B1EE480AB0EE408AB0EE480ABDEC06
:103B0000068B70BD18FCFFFF00007A4402EE900A9D
:103B1000F8EEE22AF0EE620A174AB2F9002002EE4D
:103B2000902AF8EEE22AB0EE621A144AB2F90020A6
:103B300002EE902AF8EEE22AF0EE621A104AB2F98A
:103B4000002002EE902AF8EEE22AB0EE622AF4EEAD
:103B5000C10AF1EE10FA04DD70EEC12A82EEA10A6C
:103B600003E070EEC12A82EE820A19B1F1EE402A1A
:103B7000B0EE620A704700004E00002050000020A6
:103B8000520000202DE9F0412DED068B04460D4634
:103B90001646B4F57A7F02DB4FF47A7403E014F52D
:103BA0007A7F00DC254CB5F57A7F02DB4FF47A751D
:103BB00003E015F57A7F00DC204D00EE105AB8EED8
:103BC000C00ADFED1F0A80EE201A11EE107A384687
:103BD000FDF7CFF841EC190B00EE104AB8EEC00A21
:103BE000DFED170A80EE201A11EE107A3846FDF745
:103BF000C0F841EC1A0BB0EE491AF0EE691AB0EEBB
:103C00004A0AF0EE6A0A1BF07BFAB0EE408AF0EE48
:103C1000608A51EC180BFDF7EFF80A49086036B1DD
:103C2000084690ED000AB1EE400A80ED000A054812
:103C300090ED000ABDEC068BBDE8F08118FCFFFF9B
:103C400000007A448002002002EE900AF8EEE22A98
:103C5000F0EE620A174AB2F9002002EE902AF8EE5E
:103C6000E22AB0EE621A144AB2F9002002EE902A5B
:103C7000F8EEE22AF0EE621A104AB2F9002002EEE3
:103C8000902AF8EEE22AB0EE622AF4EEC10AF1EED2
:103C900010FA04DD70EEC12A82EEA10A03E070EE94
:103CA000C12A82EE820A19B1F1EE402AB0EE620A10
:103CB00070470000540000205600002058000020EB
:103CC00070B57A480078012872D1794A1178507815
:103CD000FFF76AFE04B2764A9178D078FFF764FE67
:103CE000404205B2724A11795079FFF75DFE4042B9
:103CF00006B270480078012806D16F4804806F48EA
:103D000005806F480680AFE06A480078022808D135
:103D1000684200B2684908806848048068480680A4
:103D2000A2E06448007803280AD1604200B26249E8
:103D30000880684200B2614908806148068093E0CB
:103D40005C480078042808D15B480580604200B2D6
:103D50005A4908805A48068086E056480078052867
:103D60000AD155480480684200B254490880704224
:103D700000B25349088077E04E480078062808D101
:103D80004D4805804D480480704200B24C4908807F
:103D90006AE04848007807280BD1604200B24649E3
:103DA000088046480580704200B2454908805BE0C3
:103DB00017E04048007808280CD1684200B23E491C
:103DC0000880604200B23D490880704200B23C4920
:103DD000088049E038480480384805803848068023
:103DE00042E0334A11785078FFF7DEFD404204B2DA
:103DF0002F4A9178D078FFF7D7FD404205B22C4A80
:103E000011795079FFF7D0FD06B22A4800780928C9
:103E10000AD1604200B228490880684200B22749AE
:103E20000880274806801FE022480078082808D12B
:103E300022480480684200B21F490880204806805A
:103E400012E01C480078062808D1604200B21B49E5
:103E50000880194805801A48068005E01648048045
:103E6000164805801648068016480078E8B9104ABA
:103E700011785078FFF798FD04B20D4A9178D07808
:103E8000FFF792FD404205B2094A11795079FFF7D8
:103E90008BFD404206B2604200B20749088068428A
:103EA00000B2064908800648068070BDB9000020AF
:103EB0003C000020B600002042000020440000200A
:103EC000460000205101002010B57A4B1B78012BD1
:103ED00072D1794B1C785B7804EB032318B2764BD4
:103EE0009C78DB7804EB03235B4219B2724B1C799C
:103EF0005B7904EB03235B421AB2704B1B78012BF6
:103F000006D16F4B18806F4B19806F4B1A80AFE052
:103F10006A4B1B78022B08D14B421BB2684C2380A2
:103F2000684B1880684B1A80A2E0644B1B78032B07
:103F30000AD143421BB2624C23804B421BB2614CFC
:103F40002380614B1A8093E05C4B1B78042B08D1D3
:103F50005B4B198043421BB25A4C23805A4B1A8048
:103F600086E0564B1B78052B0AD1554B18804B42E7
:103F70001BB2544C238053421BB2534C238077E036
:103F80004E4B1B78062B08D14D4B19804D4B18809A
:103F900053421BB24C4C23806AE0484B1B78072BE2
:103FA0000BD143421BB2464C2380464B19805342EF
:103FB0001BB2454C23805BE017E0404B1B78082B7D
:103FC0000CD14B421BB23E4C238043421BB23D4CB2
:103FD000238053421BB23C4C238049E0384B18806D
:103FE000384B1980384B1A8042E0334B1C785B7891
:103FF00004EB03235B4218B22F4B9C78DB7804EB75
:1040000003235B4219B22C4B1C795B7904EB03232D
:104010001AB22A4B1B78092B0AD143421BB2284CF7
:1040200023804B421BB2274C2380274B1A801FE072
:10403000224B1B78082B08D1224B18804B421BB215
:104040001F4C2380204B1A8012E01C4B1B78062B40
:1040500008D143421BB21B4C2380194B19801A4BC9
:104060001A8005E0164B1880164B1980164B1A80E3
:10407000164B1B78EBB9104B1C785B7804EB0323D1
:1040800018B20D4B9C78DB7804EB03235B4219B22A
:10409000094B1C795B7904EB03235B421AB2434260
:1040A0001BB2074C23804B421BB2064C2380064BAD
:1040B0001A8010BDB90000207C000020B60000204E
:1040C0008200002084000020860000205101002092
:1040D00010B54FF02051084800F02AF950B14FF0C8
:1040E0002051054800F00AF80021034800F020F8AC
:1040F00000F0D6F810BD0000B86402400246094B3B
:104100009A4201D2084801E00648103801F00053F5
:104110001BB1064B0B40C36002E0044B0B408360B5
:104120007047000010640240006002407D0F7D0F68
:1041300021B1026842F00102026003E0026822F04D
:104140000102026070470000016821F00101016076
:104150000021016041608160C160016121214161F4
:104160004A49884204D13D21484A103A91608CE086
:1041700046491831884205D14FF47461434A103AD8
:10418000916082E041493031884205D14FF4741189
:104190003E4A103A916078E03C494831884205D166
:1041A0004FF07461394A103A91606EE037496031DE
:1041B000884204D13649354A103AD16065E0334926
:1041C0007831884204D13349304A103AD1605CE0FA
:1041D0002E499031884204D12F492C4A103AD1609F
:1041E00053E02A49A831884205D14FF03D51274A72
:1041F000103AD16049E02949884204D13D21274A3B
:10420000083A116041E025491831884205D14FF440
:104210007461224A083A116037E0204930318842FF
:1042200005D14FF474111D4A083A11602DE01B4965
:104230004831884205D14FF07461184A083A11603C
:1042400023E016496031884204D11149134A121FF4
:1042500011601AE011497831884204D10D490F4AA2
:10426000121F116011E00D499031884204D10A49B2
:104270000A4A121F116008E00849A831884204D197
:104280004FF03D51054A121F116070471060024007
:104290003D000020400F002000003D20106402403F
:1042A00015480078012808D114490870144800788E
:1042B00008B30120134908701DE00F480078022858
:1042C00003D101201049087015E00B48007803283D
:1042D00006D101200D49087000200D4908700AE040
:1042E00005480078042803D101200A49087002E03B
:1042F00001200949087070471C01002015010020A9
:10430000640100201A010020140100201601002081
:10431000190100201701002018010020014600208B
:104320000A6802F001020AB1012000E00020704793
:1043300030B503460A46002000240B4DAB4201D2A3
:104340000A4901E00849103902F000550DB14C68E6
:1043500000E00C68064D2C4004EA02050DB1012076
:1043600000E0002030BD0000106402400060024008
:104370007D0F7D0F10B501F080034BB122B1436971
:1043800043F08003436103E0436923F0800343610A
:1043900080290BD02AB1036801F01E042343036077
:1043A00004E0036801F01E04A343036010BD000095
:1043B00010B500220268134B1A40CC680B682343E7
:1043C0004C6923438C692343CC6923430C6A234300
:1043D0004C6A23438C6A23434C6B23438C6B2343EB
:1043E0001A430260426922F00702D1E90B342343E9
:1043F0001A4342610B6943604B6883608B68C360FA
:1044000010BD00003F801CF010B5034600210022C3
:10441000012000BF10E05A5C4AB1302A01DB392A82
:1044200001DD2E2A01D1012004E0002006E001B9BF
:10443000002003E04C1CE1B21929ECDB00BF10BDE9
:1044400010B500200649086006490860402106486A
:10445000FCF773FAA0210548FCF76FFA10BD0000C5
:10446000C8010020CC010020501A0020901A002022
:1044700000B517220349044818F0E0F913F082FF51
:1044800000BD00001E1900200040000870B5002586
:104490001B480078002831D01A48007800282DD019
:1044A0000020174908701749087001201649087044
:1044B00013F0D8FF17221549154818F0BFF900BFAF
:1044C0000A2408E01148005D1249095D884201D0C4
:1044D000012502E0641C172CF4DB00BF35B172B675
:1044E00017220C490A4818F0BDF962B600200A49A3
:1044F00008700025034908700349087070BD00006A
:104500007601002075010020740100201E19002092
:1045100000400008B4190020650100200020344943
:1045200008700220334908700720334908700020C2
:10453000324908700120324908703249087002205F
:104540003149087000203149087001203049087055
:104550000020304908700A202F490870084600786A
:10456000C82191FBF0F02D4908704FF4E1302C493F
:10457000086000202B4908702B4908702B490870EF
:104580002B4908709FED2B0A2B4880ED000A90ED17
:10459000000ADFED2A0A80EE801A294880ED001A11
:1045A00000202849087022490870274908702749C7
:1045B000087027490870274908802749088027493B
:1045C000086027490860274908602749086027498B
:1045D000087027490870274908702749087027493B
:1045E000087027490880012026490870704700009C
:1045F000B7000020B6000020630100206401002005
:10460000B8000020B90000206201002065010020F0
:10461000F2000020F1000020BB000020BC000020C0
:104620003800002068010020F9000020CA000020A6
:10463000CC000020DA0F4940BC01002000003443C8
:10464000B801002074010020BD000020BF00002040
:10465000BE000020CE000020D0000020CC010020B1
:10466000C8010020D0010020D40100201501002045
:1046700016010020140100201C0100200001002070
:1046800002010020040100200B48007898B10B487B
:10469000006880B10A48006868B1002006490870C7
:1046A0000649086006490860012006490860064975
:1046B0000860064908707047BA000020D001002049
:1046C000D4010020C8010020CC01002022010020DC
:1046D0002DE9F0412DED088B06460027FE480068C5
:1046E000401CFD49086008460068082802DC0846AE
:1046F000006800E00820F849086000256CE200240A
:1047000066E2F5480068FCF7C6FA41EC1B0BF3487B
:1047100000EBC40090ED001BB0EE410AF0EE610A20
:1047200053EC1B2B51EC100BFCF746FA41EC1A0B27
:10473000EA4800EBC40090ED001BB0EE410AF0EE39
:10474000610A53EC102B51EC1A0BFCF7C0F9E34A49
:1047500002EBC40203C2E0480068FCF79CFA41EC9B
:104760001B0B05EB450106F1100000EBC10000EB4F
:10477000C40090ED001BB0EE410AF0EE610A53EC6C
:104780001B2B51EC100BFCF717FA41EC1A0BD3481A
:1047900000EBC40090ED001BB0EE410AF0EE610AA0
:1047A00053EC102B51EC1A0BFCF7EDF8CB4A02EB53
:1047B000C40203C2C8480068FCF76DFA41EC1B0B49
:1047C000C74800EBC40090ED001BB0EE410AF0EECC
:1047D000610A53EC1B2B51EC100BFCF7EDF941EC8B
:1047E0001A0BBF4800EBC40090ED001BB0EE410A6D
:1047F000F0EE610A53EC102B51EC1A0BFCF767F941
:10480000B74A02EBC40203C2B3480068FCF743FA9C
:1048100041EC1B0B05EB450106F1280000EBC10044
:1048200000EBC40090ED001BB0EE410AF0EE610A0F
:1048300053EC1B2B51EC100BFCF7BEF941EC1A0B9F
:10484000A74800EBC40090ED001BB0EE410AF0EE6B
:10485000610A53EC102B51EC1A0BFCF794F8A04AA8
:1048600002EBC40203C205EB450106F1100000EBA8
:10487000C10000EBC40090ED002BB0EE421AF0EE48
:10488000621A964800EBC40090ED002BB0EE420A8D
:10489000F0EE620A53EC102B51EC110BFCF714F9FB
:1048A00041EC1A0B9FED8F0B53EC102BFCF78CFA9D
:1048B0001DD205EB450106F1100000EBC10000EB35
:1048C000C40090ED002BB0EE421AF0EE621A83485D
:1048D00000EBC40090ED002BB0EE420AF0EE620A4D
:1048E00053EC102B51EC110BFCF7EEF820E005EB2C
:1048F000450106F1100000EBC10000EBC40090ED93
:10490000002BB0EE421AF0EE621A744800EBC400BD
:1049100090ED002BB0EE420AF0EE620A53EC102B41
:1049200051EC110BFCF7D0F841EC1A0B81F000416F
:1049300041EC180B05EB450106F1280000EBC10026
:1049400000EBC40090ED002BB0EE421AF0EE621ABC
:10495000634800EBC40090ED002BB0EE420AF0EE8D
:10496000620A53EC102B51EC110BFCF7ADF841EC43
:104970001A0B9FED5C0B53EC102BFCF725FA1DD2A4
:1049800005EB450106F1280000EBC10000EBC40077
:1049900090ED002BB0EE421AF0EE621A504800EB98
:1049A000C40090ED002BB0EE420AF0EE620A53EC28
:1049B000102B51EC110BFCF787F820E005EB4501BB
:1049C00006F1280000EBC10000EBC40090ED002BC5
:1049D000B0EE421AF0EE621A414800EBC40090EDCE
:1049E000002BB0EE420AF0EE620A53EC102B51ECB1
:1049F000110BFCF769F841EC1A0B81F0004141EC16
:104A0000190B35480068FCF746F941EC1B0B374899
:104A100000EBC40090ED001BB0EE410AF0EE610A1D
:104A200053EC1B2B51EC100BFCF7C6F841EC1A0BA6
:104A30002E4800EBC40090ED001BB0EE410AF0EEF2
:104A4000610A53EC102B51EC1A0BFCF740F8274A83
:104A500002EBC40203C220480068FCF71CF941ECD9
:104A60001B0B53EC1B2B51EC180BFCF7A5F841EC7E
:104A70001A0B1E4800EBC40090ED001BB0EE410A7B
:104A8000F0EE610A53EC102B51EC1A0BFBF77BFF95
:104A9000164A02EBC40203C20F480068FCF7FBF899
:104AA00041EC1B0B124800EBC40090ED001BB0EE74
:104AB000410AF0EE610A53EC1B2B51EC100BFCF792
:104AC0007BF841EC1A0B0A4800EBC40090ED001B88
:104AD000B0EE410A0EE00000C0030020A02B002031
:104AE000B82B00200000000000000000D02B0020A8
:104AF000E82B0020F0EE610A53EC102B51EC1A0B5E
:104B0000FBF7E5FF454A02EBC40203C244480068D4
:104B1000FCF7C1F841EC1B0B53EC1B2B51EC190BB0
:104B2000FCF74AF841EC1A0B3C4800EBC40090ED4E
:104B3000001BB0EE410AF0EE610A53EC102B51EC71
:104B40001A0BFBF720FF354A02EBC40203C23548BB
:104B500000EBC40090ED002BB0EE420AF0EE620ACA
:104B6000314800EBC40090ED002BB0EE421AF0EE9D
:104B7000621A53EC102B51EC110BFCF725F901D202
:104B8000012000E00020A0403843C7B22549E01CC6
:104B900001EBC00090ED002BB0EE420AF0EE620A8D
:104BA0001E4800EBC40090ED002BB0EE421AF0EE70
:104BB000621A53EC102B51EC110BFCF705F901D2E2
:104BC000012000E00020E11C88403843C7B2641C8B
:104BD000032CFFF696AD6D1C012DFFF690AD10482D
:104BE000006804280ADD1FB100201049086208E0AF
:104BF0000E48006A401C0D49086202E000200B4983
:104C000008620A48006AB0F1807F03D36FF07F40EA
:104C100006490862BDEC088BBDE8F081E82B002056
:104C2000C0030020F8020308D02B0020E02400205D
:104C300010B54FF6FF7000F015F80446552C01D161
:104C4000002010BD55214FF6FF7000F04BF84FF6D5
:104C5000FF7000F007F80446552C01D10020F0E762
:104C60000120EEE770B5044600260BF073FBA02090
:104C70000BF03CFB0BF0C6FB2546E11704EB116182
:104C8000C1F307200BF032FB0BF0BCFBE11704EB88
:104C900011610912A4EB0121C8B20BF027FB0BF044
:104CA000B1FB0BF057FBA1200BF020FB0BF0AAFB94
:104CB00000200BF0E5FA06460BF076FB304670BD9F
:104CC00070B505460C46164606E02178284600F0E9
:104CD00009F8681C85B2641C3000A6F101018EB28F
:104CE000F3D170BD70B504460E460BF033FBA02027
:104CF0000BF0FCFA0BF086FB2546E11704EB116183
:104D0000C1F307200BF0F2FA0BF07CFBE11704EB88
:104D100011610912A4EB0121C8B20BF0E7FA0BF004
:104D200071FB30460BF0E2FA0BF06CFB0BF03CFB36
:104D30000A201BF0E7F870BD10B5012000F04AF81A
:104D4000A0B1012080F3138800BF00BFBFF34F8FD5
:104D50000748006800F4E06006490843001D044964
:104D60000860BFF34F8F00BF00BFFEE710BD00001B
:104D70000CED00E00000FA0510B54FF4006000F003
:104D800029F858B119F00AFA4FF4FA701BF0BAF882
:104D900012F00EFE4FF4006000F016F810BD1CB5C6
:104DA0000021084617F0B6FD0120009000208DF884
:104DB000040010208DF8050001208DF806006846DB
:104DC00000F014F81CBD00000149086070470000A5
:104DD000143C014001460020034A12680A400AB10F
:104DE000012000E000207047143C014000212349CD
:104DF0008279002A3AD00A46126803689A430B4621
:104E00001A600A1D126803689A430B1D1A60027922
:104E100011440A6803681A430A60184A0832126883
:104E200003689A43154B08331A601A1D1268036809
:104E30009A43124B0C331A604279102A0ED11A1F72
:104E4000126803681A430D4B08331A601A1D126862
:104E500003681A43094B0C331A600DE00749427985
:104E600011440A6803681A430A6005E00279114494
:104E70000A6803689A430A6070470000003C0140DA
:104E800030B52DED108B83B004460D4694ED001B1C
:104E9000B0EE410AF0EE610A9FED981B53EC112B26
:104EA00051EC100BFBF788FE41EC1E0BB0EE4E0AE6
:104EB000F0EE6E0A1AF038FAB0EE408AF0EE608A30
:104EC00094ED021BB0EE410AF0EE610A9FED8B1BE0
:104ED00053EC112B51EC100BFBF76EFE41EC1E0B4B
:104EE000B0EE4E0AF0EE6E0A1AF01EFAB0EE40AACC
:104EF000F0EE60AA94ED041BB0EE410AF0EE610AF8
:104F00009FED7E1B53EC112B51EC100BFBF754FE65
:104F100041EC1E0BB0EE4E0AF0EE6E0A1AF004FAE7
:104F2000B0EE40CAF0EE60CA94ED001BB0EE410A4C
:104F3000F0EE610A9FED711B53EC112B51EC100B3D
:104F4000FBF73AFE41EC1E0BB0EE4E0AF0EE6E0A95
:104F50001AF05AFAB0EE409AF0EE609A94ED021B05
:104F6000B0EE410AF0EE610A9FED641B53EC112B89
:104F700051EC100BFBF720FE41EC1E0BB0EE4E0A7D
:104F8000F0EE6E0A1AF040FAB0EE40BAF0EE60BAF7
:104F900094ED041BB0EE410AF0EE610A9FED571B41
:104FA00053EC112B51EC100BFBF706FE41EC1E0BE2
:104FB000B0EE4E0AF0EE6E0A1AF026FAB0EE40DAC3
:104FC000F0EE60DA53EC1B2B51EC1D0BFBF782FD6E
:104FD00041EC1F0B53EC192BFBF77CFD41EC1E0B36
:104FE00053EC1A2B51EC1C0BFBF774FD41EC1F0B1F
:104FF00053EC182BFBF76EFD53EC1E2BCDE9000193
:105000009DED000B51EC100BFBF7BDFCC5E9000159
:1050100053EC1B2B51EC1C0BFBF75CFD41EC1F0B05
:1050200053EC192BFBF756FD41EC1E0B53EC1A2BDE
:1050300051EC1D0BFBF74EFD41EC1F0B53EC182BF5
:10504000FBF748FD53EC1E2BCDE900019DED000B55
:1050500051EC100BFBF738FDC5E9020153EC1A2B9C
:1050600051EC1D0BFBF736FD41EC1F0B53EC192BDC
:10507000FBF730FD41EC1E0B53EC1B2B51EC1C0BD2
:10508000FBF728FD41EC1F0B53EC182BFBF722FD1F
:1050900053EC1E2BCDE900019DED000B51EC100BE4
:1050A000FBF771FCC5E9040153EC1B2B51EC1D0B04
:1050B000FBF710FD41EC1F0B53EC182BFBF70AFD1F
:1050C00041EC1E0B53EC1A2B51EC1C0BFBF702FDB1
:1050D00041EC1F0B53EC192BFBF7FCFC53EC1E2B84
:1050E000CDE900019DED000B51EC100BFBF7ECFC42
:1050F000C5E9060103B0BDEC108B30BD0000000017
:105100000000004030B10749096841F48061054A58
:10511000116005E00349096821F48061014A1160CA
:1051200070470000003C024070B504460A46002665
:10513000092502B909E0012A01D1160205E0022A77
:1051400001D1160201E04FF4407600F09FF80546C9
:10515000092D28D11548006820F4407013490860D3
:1051600008460068304308600846006820F0F800F0
:1051700008600846006844F0020108430B490860D3
:105180000846006840F48030086000F07FF805466B
:105190000648006820F002000449086008460068DC
:1051A00020F0F8000860284670BD0000103C024066
:1051B00009201349096801F48031B1F5803F01D11C
:1051C00001201CE00E49096801F0100109B1062018
:1051D00015E00B49096801F4807109B102200EE065
:1051E0000749096801F0EF0109B1072007E0044908
:1051F000096801F0020109B1082000E009207047A8
:105200000C3C02400348006840F00040014908603F
:1052100070470000103C024030B502460C4609259C
:1052200000F034F80546092D19D10E48006820F425
:1052300040700C4908600846006840F4007008603F
:105240000846006840F001000860146000F01EF895
:1052500005460448006820F001000249086028461D
:1052600030BD0000103C02400548006800F00040DE
:1052700028B1044802490C390860034808607047A7
:10528000103C024023016745AB89EFCD08B50920EA
:105290000090FFF78DFF009002E0FFF789FF00907C
:1052A0009DF800000128F8D09DF8000008BD00001E
:1052B00000200B4908700B4908700B4908700B4916
:1052C00008700B4908700B4908700B4908700B49AE
:1052D00008700B4908700B4908700B49087070473B
:1052E000D9000020DA000020DB000020DC000020D4
:1052F000DD000020DE000020DF000020E0000020B4
:10530000E3000020E1000020E20000202DE9FF4F33
:105310002DED048BADF6AC4D83460F469946DDF876
:10532000F0AC4FF434710DF6D810FBF706FB4FF4D8
:1053300034710DF5E160FBF700FB002488E00025E7
:1053400082E09FEDFE0B04FB07500DF6D81101EB38
:10535000C00080ED000B002673E0A64238D8C5EBF4
:105360000510304409EBC00090ED002BB0EE420A6E
:10537000F0EE620AF348005D8119F34800EBC100CA
:1053800090ED002BB0EE421AF0EE621A53EC102BA7
:1053900051EC110BFBF79EFB41EC180B04FB075083
:1053A0000DF6D81101EBC00090ED001BB0EE410AE4
:1053B000F0EE610A53EC102B51EC180BFBF7E3FAFB
:1053C00004FB07520DF6D81303EBC20203C237E009
:1053D000C5EB0510304409EBC00090ED002BB0EE9A
:1053E000420AF0EE620AD748805D0119D64800EB08
:1053F000C10090ED002BB0EE421AF0EE621A53ECB1
:10540000102B51EC110BFBF765FB41EC180B04FB67
:1054100007500DF6D81101EBC00090ED001BB0EE67
:10542000410AF0EE610A53EC102B51EC180BFBF71C
:10543000AAFA04FB07520DF6D81303EBC20203C20B
:10544000761C0F2E89D36D1CBD42FFF47AAF641C0D
:105450000F2CFFF474AFE846002447E0B948055D1F
:105460003EE09FEDB60B08EBC50080ED000B00267B
:1054700033E006FB0750B349095D401A0DF6D81119
:1054800001EBC00090ED002BB0EE420AF0EE620A94
:10549000C4EB0410304409EBC00090ED002BB0EEDB
:1054A000421AF0EE621A53EC102B51EC110BFBF781
:1054B00011FB41EC180B08EBC50090ED001BB0EEA2
:1054C000410AF0EE610A53EC102B51EC180BFBF77C
:1054D0005AFA08EBC50203C2761C0F2EC9D36D1C05
:1054E0009849601C085CA842BBD8641CBC42B5D378
:1054F000002421E00AEBC40090ED002BB0EE420A3C
:10550000F0EE620A8F49601C085C401E08EBC00088
:1055100090ED002BB0EE421AF0EE621A53EC102B15
:1055200051EC110BFBF72FFA864B621C9A5C521E52
:1055300008EBC20203C2641CBC42DBD339464046BE
:1055400018F07CFF00248DE0002587E09FED7B0BA9
:1055500004FB07500DF5E16101EBC00080ED000B8D
:10556000002678E00120A04000EA0B00C8B3B54255
:1055700038D87448805D284408EBC00090ED002BBB
:10558000B0EE420AF0EE620A04FB07600DF6D81195
:1055900001EBC00090ED002BB0EE421AF0EE621A63
:1055A00053EC102B51EC110BFBF794FA41EC180B58
:1055B00004FB07500DF5E16101EBC00090ED001B0D
:1055C000B0EE410AF0EE610A53EC102B51EC180BCF
:1055D000FBF7D9F904FB07520DF5E16303EBC202B7
:1055E00003C237E05748405D304408EBC00090EDFF
:1055F000002BB0EE420AF0EE620A04FB07600DF6E3
:10560000D81101EBC00090ED002BB0EE421AF0EE85
:10561000621A53EC102B51EC110BFBF75BFA41ECC7
:10562000180B04FB07500DF5E16101EBC00090ED94
:10563000001BB0EE410AF0EE610A53EC102B51EC66
:10564000180BFBF7A0F904FB07520DF5E16303EB20
:10565000C20203C2761CBE4284D36D1CBD42FFF45D
:1056600075AF641C0F2CFFF46FAF78213648F0380B
:10567000FBF763F9002438E0002533E0DDF8C40CC3
:1056800000EBC50090ED002BB0EE420AF0EE620A8E
:1056900004FB07500DF5E16101EBC00090ED002B1C
:1056A000B0EE421AF0EE621A53EC102B51EC110BD3
:1056B000FBF710FA41EC180B2348F03800EBC4005C
:1056C00090ED001BB0EE410AF0EE610A53EC102B96
:1056D00051EC180BFBF757F91B4AF03A02EBC402E6
:1056E00003C26D1CBD42C9D3641C0F2CC4D300245B
:1056F00070E000256BE0A54210D81248005D41190A
:10570000114800EBC10090ED000BC4EB04102844DD
:10571000694601EBC00080ED000B19E00948405DCF
:105720000119094800EBC10090ED000BC4EB041017
:105730002844694601EBC00008E0000000000000BA
:1057400000000000E8020308E01D002080ED000BCF
:10575000002639E005FB07600DF6D81101EBC0000B
:1057600090ED002BB0EE420AF0EE620A04FB0760F7
:105770000DF5E16101EBC00090ED002BB0EE421A97
:10578000F0EE621A53EC102B51EC110BFBF7A2F95F
:1057900041EC180BC4EB04102844694601EBC0002F
:1057A00090ED001BB0EE410AF0EE610A53EC102BB5
:1057B00051EC180BFBF78BF9C4EB04122A446B462F
:1057C00003EBC20203C2761CBE42C3D36D1C0F2D75
:1057D00091D3641C0F2C8CD300244CE0002547E0AF
:1057E0001FED2A0B04FB07500DF6D81101EBC0008A
:1057F00080ED000B002638E0C5EB0510304409EBC6
:10580000C00090ED002BB0EE420AF0EE620AC4EB4D
:1058100004103044694601EBC00090ED002BB0EE5F
:10582000421AF0EE621A53EC102B51EC110BFBF7FD
:1058300051F941EC180B04FB07500DF6D81101EBA0
:10584000C00090ED001BB0EE410AF0EE610A53EC8F
:10585000102B51EC180BFBF796F804FB07520DF6D2
:10586000D81303EBC20203C2761C0F2EC4D36D1CE7
:10587000BD42B5D3641C0F2CB0D3002454E05A4869
:10588000055D4BE0C4EB041028445749095D401AFC
:10589000694601EBC00090ED000B544800EBC500D9
:1058A00080ED000B002636E04F48005D281A00FB13
:1058B00007600DF5E16101EBC00090ED002BB0EE4B
:1058C000420AF0EE620A04FB07600DF6D81101EB04
:1058D000C00090ED002BB0EE421AF0EE621A53ECCD
:1058E000102B51EC110BFBF7F5F841EC180B3F486E
:1058F00000EBC50090ED001BB0EE410AF0EE610A2E
:1059000053EC102B51EC180BFBF7E1F8374A02EB84
:10591000C50203C2761CBE42C6D36D1C3249601C50
:10592000085CA842AED8641C0F2CA8D3002452E017
:105930002D48055D49E0002644E02B48005D281A0B
:1059400000FB07600DF5E16101EBC00090ED002B5D
:10595000B0EE420AF0EE620A04FB076001EBC00001
:1059600090ED002BB0EE421AF0EE621A53EC102BC1
:1059700051EC110BFBF7AEF841EC190B0AEBC6002A
:1059800090ED001BB0EE410AF0EE610A53EC102BD3
:1059900051EC190BFBF79EF841EC180B134800EB88
:1059A000C50090ED001BB0EE410AF0EE610A53EC29
:1059B000102B51EC180BFAF7E6FF0C4A02EBC5026C
:1059C00003C2761CBE42B8D36D1C0749601C085C3C
:1059D000A842B0D8641C0F2CAAD30DF6AC4DBDEC78
:1059E000048BBDE8FF8F0000E8020308E01D0020E3
:1059F00010B52DED0A8B86B004462046FBF75CF906
:105A000041EC1A0B9FEDFE0B53EC102BFBF7D4F877
:105A100041EC180B9FEDFC0BFD4880ED100B80ED69
:105A2000080BB03880ED2C0BFA4890ED721BB0EEED
:105A3000410AF0EE610A53EC182B51EC100BFBF706
:105A400049F8F34AC2E90201F24890ED701BB0EE4A
:105A5000410AF0EE610A51EC100B81F0004141EC7B
:105A60001A0B53EC182BFBF735F8E94AC2E904018D
:105A7000E84890ED721BB0EE410AF0EE610A51EC7D
:105A8000100B81F0004141EC1A0B53EC182BFBF783
:105A900021F8DF4AC2E90601DE4890ED6E1BB0EE48
:105AA000410AF0EE610A53EC182B51EC100BFBF796
:105AB00011F8D74AC2E90A01D64890ED701BB0EE42
:105AC000410AF0EE610A53EC182B51EC100BFBF776
:105AD00001F8CF4AC2E90C01CE4890ED6E1BB0EE42
